{
  "transactions": [
    {
      "hash": "0x92787688bf6dc99ff5cb557d831fb7c26031a96c1c26a0828d9dd8535d34635e",
      "transactionType": "CALL",
      "contractName": "KpkOivFactory",
      "contractAddress": "0x0d94255fde65d302616b02a2f070cdb21190d420",
      "function": "deployOiv(((address[],uint256),uint256,address,(address,address,string,string,address,uint64,uint64,address,uint256,uint256,address,uint256),(address,bool,bool)[]))",
      "arguments": [
        "(([0x524075B4d1C91F91F27893f4640ca980785d1e58, 0xAc12293749b4D9e7bb4c33608d39E089135E3521, 0x9F230218cf7FDe6A9246e6f8CB0b888377E92639, 0x4102E0743DA668EB2f55E90c96ef8EF4e621879c, 0xE2679499b74cCc5dfd4AA78462FB7A1D4Be386E5], 1), 23165914840764457753120906892618625837632967432423373979624142386677618192773, 0x9D73C053afcbF6CD5c8986C3f049fD2Ce005730C, (0xA0b86991c6218b36c1d19D4a2e9Eb0cE3606eB48, 0x0000000000000000000000000000000000000000, kpk USD Alpha Fund, kUSD, 0x0000000000000000000000000000000000000000, 259200, 259200, 0x7Bb5e307eDf80630f153BD28789b4365eFe4cce3, 300, 150, 0x0000000000000000000000000000000000000000, 0), [(0xdAC17F958D2ee523a2206206994597C13D831ec7, true, true)])"
      ],
      "transaction": {
        "from": "0xaa5a7c7ea51f276301f881f9ccb501a1dfef4f72",
        "to": "0x0d94255fde65d302616b02a2f070cdb21190d420",
        "gas": "0x90d88f",
        "value": "0x0",
        "input": "0xbe46e234000000000000000000000000000000000000000000000000000000000000002000000000000000000000000000000000000000000000000000000000000000a03337717222fb31d74a9cb673c541790c522ac75318b226a38c9bfa791ace31850000000000000000000000009d73c053afcbf6cd5c8986c3f049fd2ce005730c00000000000000000000000000000000000000000000000000000000000001a000000000000000000000000000000000000000000000000000000000000003a0000000000000000000000000000000000000000000000000000000000000004000000000000000000000000000000000000000000000000000000000000000010000000000000000000000000000000000000000000000000000000000000005000000000000000000000000524075b4d1c91f91f27893f4640ca980785d1e58000000000000000000000000ac12293749b4d9e7bb4c33608d39e089135e35210000000000000000000000009f230218cf7fde6a9246e6f8cb0b888377e926390000000000000000000000004102e0743da668eb2f55e90c96ef8ef4e621879c000000000000000000000000e2679499b74ccc5dfd4aa78462fb7a1d4be386e5000000000000000000000000a0b86991c6218b36c1d19d4a2e9eb0ce3606eb480000000000000000000000000000000000000000000000000000000000000000000000000000000000000000000000000000000000000000000000000000018000000000000000000000000000000000000000000000000000000000000001c00000000000000000000000000000000000000000000000000000000000000000000000000000000000000000000000000000000000000000000000000003f480000000000000000000000000000000000000000000000000000000000003f4800000000000000000000000007bb5e307edf80630f153bd28789b4365efe4cce3000000000000000000000000000000000000000000000000000000000000012c00000000000000000000000000000000000000000000000000000000000000960000000000000000000000000000000000000000000000000000000000000000000000000000000000000000000000000000000000000000000000000000000000000000000000000000000000000000000000000000000000000000000000126b706b2055534420416c7068612046756e64000000000000000000000000000000000000000000000000000000000000000000000000000000000000000000046b555344000000000000000000000000000000000000000000000000000000000000000000000000000000000000000000000000000000000000000000000001000000000000000000000000dac17f958d2ee523a2206206994597c13d831ec700000000000000000000000000000000000000000000000000000000000000010000000000000000000000000000000000000000000000000000000000000001",
        "nonce": "0x157",
        "chainId": "0x1"
      },
      "additionalContracts": [
        {
          "transactionType": "CREATE2",
          "contractName": null,
          "address": "0xd8e63d2ca7a098e2b939bf4733e94c5768d3b966",
          "initCode": "0x602d8060093d393df3363d3d373d3d3d363d739646fdad06d3e24444381f44362a3b0eb343d3375af43d82803e903d91602b57fd5bf3"
        },
        {
          "transactionType": "CREATE2",
          "contractName": null,
          "address": "0xb15400bb735cf9d91e09d097f2da588ebe760d49",
          "initCode": "0x602d8060093d393df3363d3d373d3d3d363d739646fdad06d3e24444381f44362a3b0eb343d3375af43d82803e903d91602b57fd5bf3"
        },
        {
          "transactionType": "CREATE2",
          "contractName": null,
          "address": "0x988a15711ccdf16c06010bb41aaebf39e407cd7f",
          "initCode": "0x602d8060093d393df3363d3d373d3d3d363d739646fdad06d3e24444381f44362a3b0eb343d3375af43d82803e903d91602b57fd5bf3"
        },
        {
          "transactionType": "CREATE2",
          "contractName": null,
          "address": "0x38f6a1b46144faee6a6d9f79d8de264c18e23848",
          "initCode": "0x608060405234801561001057600080fd5b506040516101e63803806101e68339818101604052602081101561003357600080fd5b8101908080519060200190929190505050600073ffffffffffffffffffffffffffffffffffffffff168173ffffffffffffffffffffffffffffffffffffffff1614156100ca576040517f08c379a00000000000000000000000000000000000000000000000000000000081526004018080602001828103825260228152602001806101c46022913960400191505060405180910390fd5b806000806101000a81548173ffffffffffffffffffffffffffffffffffffffff021916908373ffffffffffffffffffffffffffffffffffffffff1602179055505060ab806101196000396000f3fe608060405273ffffffffffffffffffffffffffffffffffffffff600054167fa619486e0000000000000000000000000000000000000000000000000000000060003514156050578060005260206000f35b3660008037600080366000845af43d6000803e60008114156070573d6000fd5b3d6000f3fea2646970667358221220d1429297349653a4918076d650332de1a1068c5f3e07c5c82360c277770b955264736f6c63430007060033496e76616c69642073696e676c65746f6e20616464726573732070726f766964656400000000000000000000000041675c099f32341bf84bfc5382af534df5c7461a"
        },
        {
          "transactionType": "CREATE2",
          "contractName": null,
          "address": "0x7bb5e307edf80630f153bd28789b4365efe4cce3",
          "initCode": "0x608060405234801561001057600080fd5b506040516101e63803806101e68339818101604052602081101561003357600080fd5b8101908080519060200190929190505050600073ffffffffffffffffffffffffffffffffffffffff168173ffffffffffffffffffffffffffffffffffffffff1614156100ca576040517f08c379a00000000000000000000000000000000000000000000000000000000081526004018080602001828103825260228152602001806101c46022913960400191505060405180910390fd5b806000806101000a81548173ffffffffffffffffffffffffffffffffffffffff021916908373ffffffffffffffffffffffffffffffffffffffff1602179055505060ab806101196000396000f3fe608060405273ffffffffffffffffffffffffffffffffffffffff600054167fa619486e0000000000000000000000000000000000000000000000000000000060003514156050578060005260206000f35b3660008037600080366000845af43d6000803e60008114156070573d6000fd5b3d6000f3fea2646970667358221220d1429297349653a4918076d650332de1a1068c5f3e07c5c82360c277770b955264736f6c63430007060033496e76616c69642073696e676c65746f6e20616464726573732070726f766964656400000000000000000000000041675c099f32341bf84bfc5382af534df5c7461a"
        },
        {
          "transactionType": "CREATE2",
          "contractName": null,
          "address": "0x18b97206ca50982d51e9943ff53cb9d8a238e939",
          "initCode": "0x60a080604052346100c257306080525f5160206159815f395f51905f525460ff8160401c166100b3576002600160401b03196001600160401b03821601610060575b6040516158ba90816100c782396080518181816136d8015261379f0152f35b6001600160401b0319166001600160401b039081175f5160206159815f395f51905f525581527fc7f505b2f371ae2175ee4913f4499e1f2633a7b5936321eed1cdaeb6115181d290602090a15f80610041565b63f92ee8a960e01b5f5260045ffd5b5f80fdfe6080806040526004361015610012575f80fd5b5f905f3560e01c9081626d6cae146142cd5750806301ffc9a7146141f95780630315ada9146141d257806303711bfc146141a857806306fdde03146140c5578063095ea7b3146140225780630f3a790d14613faf5780630f3bcd6314613f895780630ffbfda414613f6c57806318160ddd14613f305780632123508314613d8157806323b872dd14613bf7578063248a9ca314613bad5780632605d55d14613b455780632f2ff15d14613ae8578063313ce56714613acd57806336568abe14613a705780634523e8a214613a575780634c8ceb1514613a315780634f1ef2861461375057806352d1902d146136be5780635b5e3c13146135ef5780635bd6f75e1461350c5780635fda035b146134b457806370a082311461345f57806373897d13146133f05780637c16f3db146133885780638502e7d214613320578063872ccfbe146132b157806391a543b61461329457806391d148541461322b5780639219e5101461300357806392f6576e14612fe757806394d4a79514612ed757806395d89b4114612dbb578063983d273714612d81578063a217fddf14612d67578063a45ee2f214612729578063a47084a91461270d578063a9059cbb146126dc578063ad3cb1cc14612679578063b3f0067414612653578063b9b5e2a71461261b578063bbcd468d146122bd578063bce46c2c14612285578063c1aa983e14611f82578063c58343ef14611e06578063ca504aa114611dea578063cf04327a14611d82578063d547741f14611d20578063d6fd0c57146114af578063dd62ed3e14611436578063e01b402d14611419578063e0caf62d1461138c578063e366da2c1461134e578063e6a69ab814611330578063ed5614b614611313578063efdcd97414611282578063f24c01fe146112615763f2edc0ab146102b1575f80fd5b34610dcf576020600319360112610dcf5760043567ffffffffffffffff8111610dcf576101806003198236030112610dcf5760405190610180820182811067ffffffffffffffff821117610d775760405261030e81600401614338565b825261031c60248201614338565b60208301908152604482013567ffffffffffffffff8111610dcf5761034790600436918501016144c9565b9160408401928352606481013567ffffffffffffffff8111610dcf5761037390600436918401016144c9565b936060810194855261038760848301614338565b946080820195865261039b60a4840161443b565b9160a081019283526103af60c4850161443b565b9360c082019485526103c360e48201614338565b60e083019081526101008301610104830135815261012084019161012484013583526103f26101448501614338565b956101408601968752610164610160870195013585527ff0c57e16840df040f15088dc2f81fe391c3923bec73e23a9662efc9c229c6a00549a60ff8c60401c16159b8c67ffffffffffffffff821680159182611259575b50600114908161124f575b159081611246575b5061121e578c600167ffffffffffffffff198316177ff0c57e16840df040f15088dc2f81fe391c3923bec73e23a9662efc9c229c6a00556111c9575b506104a16156b7565b6104a96156b7565b519051906104b56156b7565b6104bd6156b7565b80519067ffffffffffffffff8211610d77576104f97f52c63247e1f47db19d5ce0460030c497f067ca4cebf71ba98eeadabe20bace03546144e7565b601f8111611152575b50602090601f83116001146110af5761053292915f9183610de6575b50508160011b915f199060031b1c19161790565b7f52c63247e1f47db19d5ce0460030c497f067ca4cebf71ba98eeadabe20bace03555b80519067ffffffffffffffff8211610d77576105917f52c63247e1f47db19d5ce0460030c497f067ca4cebf71ba98eeadabe20bace04546144e7565b601f8111611038575b50602090601f8311600114610f95576105c992915f9183610de65750508160011b915f199060031b1c19161790565b7f52c63247e1f47db19d5ce0460030c497f067ca4cebf71ba98eeadabe20bace04555b6105f46156b7565b6105fc6156b7565b6001600160a01b03855116158015610f83575b8015610f71575b8015610f5f575b8015610f4c575b8015610f39575b610d8b576107d0825111610f11576107d0845111610f11576107d0835111610f11576001600160a01b038551169a8b15610d8b57308c14610d8b575f8c8152603360205260409020546001600160a01b031615610b1f578c15610a09578b8d52603760205260408d20546109fa578b8d52603860205260408d20546109fa576032549b60018d11156109eb578d808e5b8110610886575b506107a79c9d506001600160a01b039b9a978c6107919861077967ffffffffffffffff9c95996107736107989f9a8f9c8661078a9c81809d847fd917aa0fd960acf55042bdc418462e797db8108d0bb75c1e770dbb691947fd828e6107839f9761076d9852603360205280600260408220828155826001820161074581546144e7565b80610843575b505050015580a25b51166001600160a01b0319603554161760355551166151fa565b51615080565b51614ac7565b5191511690614dfc565b5116614dbb565b5116614e97565b5116614f19565b42603e5542603f555116614b71565b506107af5780f35b7fffffffffffffffffffffffffffffffffffffffffffffff00ffffffffffffffff7ff0c57e16840df040f15088dc2f81fe391c3923bec73e23a9662efc9c229c6a0054167ff0c57e16840df040f15088dc2f81fe391c3923bec73e23a9662efc9c229c6a00557fc7f505b2f371ae2175ee4913f4499e1f2633a7b5936321eed1cdaeb6115181d2602060405160018152a180f35b601f81116001146108595750555b825f8061074b565b8183526020832061087691601f0160051c5f190190600101614fd7565b8082528160208120915555610851565b826001600160a01b0361089883614793565b90549060031b1c16146108ae576001018e6106bb565b9192939495969798999a9b9c9d90505f1981019081116109d757906108ee6001600160a01b036108e061090d94614793565b90549060031b1c1691614793565b9091906001600160a01b038084549260031b9316831b921b1916179055565b60325480156109c3579761078367ffffffffffffffff988f6001600160a01b039d996107a79f9d978f969a6107736107989f9b8f9c8a6107919f958161078a9e610779987fd917aa0fd960acf55042bdc418462e797db8108d0bb75c1e770dbb691947fd82839c61076d975f190161099c61098782614793565b6001600160a01b0382549160031b1b19169055565b6032559e50509d9f509d50509c9f5050509a9f5050995050989a5050979a9b8e9d506106c2565b60248e634e487b7160e01b81526031600452fd5b60248f634e487b7160e01b81526011600452fd5b60048e6317dbc4cb60e21b8152fd5b60048d6317dbc4cb60e21b8152fd5b67ffffffffffffffff966107836001600160a01b039b9a978c6107a79e9f986107798c996107736107989f9a61076d866107919f9c81809d61078a9f805f526033602052600260405f200161010061ff0019825416179055805f526033602052600260405f2001620100007fffffffffffffffffffffffffffffffffffffffffffffffffffffffffff00ffff825416179055805f526033602052600260405f200163010000007fffffffffffffffffffffffffffffffffffffffffffffffffffffffff00ffffff8254161790557f1175ae2330b4ff9a4577f573159eb554909d88fa901321b37d5bd72613cc57f760405180606081016001151582526001151560208301526001151560408301520390a2610753565b999a96919b5092945f989794989b875f52603360205260405f206001600160a01b0389166001600160a01b03198254161790556040517f95d89b410000000000000000000000000000000000000000000000000000000081525f816004818c5afa908115610ddb575f91610e97575b50885f526033602052600160405f20019080519067ffffffffffffffff8211610d7757610bbb83546144e7565b601f8111610e54575b50602090601f8311600114610df157610bf392915f9183610de65750508160011b915f199060031b1c19161790565b90555b6040517f313ce5670000000000000000000000000000000000000000000000000000000081526020816004818c5afa8015610ddb575f90610d9a575b60ff91501660248111610d8b575f89815260336020526040902060020180546101007fffffffffffffffffffffffffffffffffffffffffffffffffffffffffffff000090911661ff00199390931692909217919091177fffffffffffffffffffffffffffffffffffffffffffffffffffffffff0000ffff1663010100001790556032549168010000000000000000831015610d77576107836001600160a01b039b8c67ffffffffffffffff9a6107a79f8c996107736107989f9861076d866107919f816107799761078a9f9e829f816108ee826001610d149401603255614793565b7f1175ae2330b4ff9a4577f573159eb554909d88fa901321b37d5bd72613cc57f7604051827f43b4d2df53b8ec4091761b182b40c973e846ef43f0966abcacd8e29a178bd7e55f80a26001808252602082018190526040820152606090a2610753565b634e487b7160e01b5f52604160045260245ffd5b6317dbc4cb60e21b5f5260045ffd5b506020813d602011610dd3575b81610db4602093836143af565b81010312610dcf575160ff81168103610dcf5760ff90610c32565b5f80fd5b3d9150610da7565b6040513d5f823e3d90fd5b015190505f8061051e565b90601f19831691845f52815f20925f5b818110610e3c5750908460019594939210610e24575b505050811b019055610bf6565b01515f1960f88460031b161c191690555f8080610e17565b92936020600181928786015181550195019301610e01565b82811115610bc457610e8990845f5260205f2090601f850160051c9060208610610e8f575b601f82910160051c039101614fd7565b5f610bc4565b5f9150610e79565b90503d805f833e610ea881836143af565b810190602081830312610dcf5780519067ffffffffffffffff8211610dcf570181601f82011215610dcf57805190610edf826143d2565b92610eed60405194856143af565b82845260208383010111610dcf57815f9260208093018386015e830101525f610b8e565b7f28b5dcaa000000000000000000000000000000000000000000000000000000005f5260045ffd5b5067ffffffffffffffff8851161561062b565b5067ffffffffffffffff87511615610624565b506001600160a01b038151161561061d565b506001600160a01b038b511615610616565b506001600160a01b038951161561060f565b90601f198316917f52c63247e1f47db19d5ce0460030c497f067ca4cebf71ba98eeadabe20bace045f52815f20925f5b8181106110205750908460019594939210611008575b505050811b017f52c63247e1f47db19d5ce0460030c497f067ca4cebf71ba98eeadabe20bace04556105ec565b01515f1960f88460031b161c191690555f8080610fdb565b92936020600181928786015181550195019301610fc5565b8281111561059a577f52c63247e1f47db19d5ce0460030c497f067ca4cebf71ba98eeadabe20bace045f526110a9907f46a2803e59a4de4e7a4c574b1243f25977ac4c77d5a1a4a609b5394cebb4a2aa90601f850160051c9060208610610e8f57601f82910160051c039101614fd7565b5f61059a565b90601f198316917f52c63247e1f47db19d5ce0460030c497f067ca4cebf71ba98eeadabe20bace035f52815f20925f5b81811061113a5750908460019594939210611122575b505050811b017f52c63247e1f47db19d5ce0460030c497f067ca4cebf71ba98eeadabe20bace0355610555565b01515f1960f88460031b161c191690555f80806110f5565b929360206001819287860151815501950193016110df565b82811115610502577f52c63247e1f47db19d5ce0460030c497f067ca4cebf71ba98eeadabe20bace035f526111c3907f2ae08a8e29253f69ac5d979a101956ab8f8d9d7ded63fa7a83b16fc47648eab090601f850160051c9060208610610e8f57601f82910160051c039101614fd7565b5f610502565b7fffffffffffffffffffffffffffffffffffffffffffffff0000000000000000001668010000000000000001177ff0c57e16840df040f15088dc2f81fe391c3923bec73e23a9662efc9c229c6a00555f610498565b7ff92ee8a9000000000000000000000000000000000000000000000000000000005f5260045ffd5b9050155f61045c565b303b159150610454565b91508e610449565b34610dcf57602061127a6112743661434c565b916147ea565b604051908152f35b34610dcf576020600319360112610dcf5761129b61430c565b335f9081527fb7db2dd08fcb62d0c9e08c51941cae53c267786a0b75803fb7960902fc8ef97d602052604090205460ff16156112eb576001600160a01b03811615610d8b576112e9906151fa565b005b7fea8e4eb5000000000000000000000000000000000000000000000000000000005f5260045ffd5b34610dcf575f600319360112610dcf576020603c54604051908152f35b34610dcf575f600319360112610dcf5760206040516301e133808152f35b34610dcf576020600319360112610dcf576001600160a01b0361136f61430c565b165f526033602052602060ff600260405f20015416604051908152f35b34610dcf576020600319360112610dcf5760043567ffffffffffffffff8111610dcf576113bd903690600401614498565b905f5b8281106113c957005b806114136001600160a01b036113ea6113e560019588886147c6565b6147d6565b166001600160a01b036035541661140d6114086113e5868a8a6147c6565b615151565b91614936565b016113c0565b34610dcf575f600319360112610dcf57602060405162093a808152f35b34610dcf576040600319360112610dcf5761144f61430c565b6001600160a01b03611499611462614322565b926001600160a01b03165f527f52c63247e1f47db19d5ce0460030c497f067ca4cebf71ba98eeadabe20bace0160205260405f2090565b91165f52602052602060405f2054604051908152f35b34610dcf576080600319360112610dcf5760043567ffffffffffffffff8111610dcf576114e0903690600401614498565b9060243567ffffffffffffffff8111610dcf57611501903690600401614498565b604435936001600160a01b03851693848603610dcf57335f9081527f5dfc6369ede8c1331430c00b581919993675ec010140508e8a499d5c8bfbd9376020526040902054606435969060ff16156112eb578661155c916150d7565b5f5f603b54611cee575b603d54151580611cd2575b611ca1575b8115801590611c98575b611c61575b50505f5b8281106116ff575050505f5b8181106115af575050505f52604060205260405f20555f80f35b6115ba8183856147c6565b355f52604160205260405f209084604051926115d584614376565b61167b8154916115e860ff8416876145df565b60ff8360081c16906115f98261448e565b8160208801526001600160a01b03604088019460101c168452600181015460608801526002810154608088015267ffffffffffffffff60056001600160a01b03600384015416928360a08b01528260048201546001600160a01b03811660c08d015260a01c1660e08b01520154166101008801526116768261448e565b6148d5565b156116f457516001600160a01b0316036116eb5781519160028310156116d7576001926116bd576116b7906116b18386886147c6565b356155f0565b01611595565b6116d2906116cc8386886147c6565b35615544565b6116b7565b634e487b7160e01b5f52602160045260245ffd5b600191506116b7565b5050600191506116b7565b61170a8184846147c6565b355f52604160205260405f20906040519161172483614376565b80549061173460ff8316856145df565b60ff8260081c16906117458261448e565b8160208601526001600160a01b03604086019360101c16835260018101549460608101958652600282015492608082019384526117d16001600160a01b03600385015416918260a085015267ffffffffffffffff60056004870154968260c08801986001600160a01b0381168a5260a01c1660e08801520154169261010085019384526116768261448e565b15611c53578b6001600160a01b0386511603611c535767ffffffffffffffff8151164211611ba257505160028110156116d75761192d576118138488886147c6565b359061182c86518d6001600160a01b03875116916147ea565b92518310611905576001956118dc6001600160a01b037f3a9fb3796479f1ba9a831de90440cc8d8803a33976c3ccc93c007a11335ff619966118c687836118fb97895f52604160205260405f2061010061ff00198254161790558751828651165f5260376020526118a260405f209182546145d2565b9055818551165f52603860205260405f206118bd815461462f565b9055511661573d565b51166001600160a01b0360355416835191614936565b5192604051938493846040919493926060820195825260208201520152565b0390a15b01611589565b7f9a85cf0f000000000000000000000000000000000000000000000000000000005f5260045ffd5b919061193d8488889796976147c6565b35925f92603c5480611b68575b508c61196d61195a8686516145d2565b916001600160a01b03845116908361466b565b9651871061190557855f52604160205260405f2061010061ff00198254161790556001600160a01b038251165f52603860205260405f206119ae815461462f565b90553015611b3c57305f527f52c63247e1f47db19d5ce0460030c497f067ca4cebf71ba98eeadabe20bace0060205260405f2054818110611b0a5787611b02946001600160a01b0360019b9a98955f867f3bb7adc46bbbf80e25113241374cc1e30ff5508cd3b1158e56ef95150d01324e9c9a97611ade973084527f52c63247e1f47db19d5ce0460030c497f067ca4cebf71ba98eeadabe20bace00602052036040832055807f52c63247e1f47db19d5ce0460030c497f067ca4cebf71ba98eeadabe20bace0254037f52c63247e1f47db19d5ce0460030c497f067ca4cebf71ba98eeadabe20bace02556040519081527fddf252ad1be2c89b69c2b068fc378daa952ba7f163c4a11628f55a4df523b3ef60203092a35116906001600160a01b03806035541691511691615026565b51604051948594859094939260609260808301968352602083015260408201520152565b0390a16118ff565b7fe450d38c000000000000000000000000000000000000000000000000000000005f523060045260245260445260645ffd5b7f96c6fd1e000000000000000000000000000000000000000000000000000000005f525f60045260245ffd5b612710919450611b799084516145bf565b0480611b87575b928d61194a565b611b9d816001600160a01b03603a54163061498b565b611b80565b95509250505080519260028410156116d757600193611c2357611beb7fc0a51cc9c37d3c68bf7b1cfb82bc71a33594f9aabda23e873c36ea096cdfafcd926116b18589896147c6565b67ffffffffffffffff611bff8488886147c6565b91516040805193358452911667ffffffffffffffff16602083015281908101611b02565b611beb7f441bd46dd6ce42f3abc7eb9a5838128782663e20118f56df2fdda92b5dad5f83926116cc8589896147c6565b5050505050600191506118ff565b7fb37e82d9b498b1f6bcddb80cd913291362927514ad5c2b6abf411282d6abb57d9160409182519182526020820152a18680611585565b50801515611580565b611cad603f54426145d2565b6154608111611cbd575b50611576565b611ccc915042603f558861538b565b88611cb7565b50865f52603360205260ff600260405f20015460081c16611571565b611cfa603e54426145d2565b6154608111611d0a575b50611566565b611d1991925042603e556154c9565b9088611d04565b34610dcf576040600319360112610dcf576112e9600435611d3f614322565b90611d7d611d78825f527f02dd7bc7dec4dceedda775e58dd541e08a116c6c53815c0bd028192f7b626800602052600160405f20015490565b614af8565b614ced565b34610dcf576020600319360112610dcf57335f9081527fb7db2dd08fcb62d0c9e08c51941cae53c267786a0b75803fb7960902fc8ef97d60205260409020546004359060ff16156112eb576107d08111610f115780603b5403611de157005b6112e990615080565b34610dcf575f600319360112610dcf5760206040516154608152f35b34610dcf576020600319360112610dcf575f610100604051611e2781614376565b8281528260208201528260408201528260608201528260808201528260a08201528260c08201528260e082015201526004355f52604160205260405f20604051611e7081614376565b8154611e7f60ff8216836145df565b60ff8160081c166020830190611e948161448e565b81526001600160a01b03604084019260101c16825260018401549160608401928352600285015494608085019586526001600160a01b036003820154169160a0860192835260048201549167ffffffffffffffff600560c08901926001600160a01b03861684528260e08b019660a01c16865201541694610100880195865260405197519460028610156116d7576101209967ffffffffffffffff986001600160a01b0380968c602083978e9c83525191611f4e8361448e565b0152511660408c01525160608b01525160808a0152511660a0880152511660c0860152511660e08401525116610100820152f35b34610dcf57611f9036614450565b9091611f9d828286614ff2565b6001600160a01b0383165f52603360205260ff600260405f20015460181c161561225d5783611fcf600295303361498b565b611fda6034546147b8565b9384603455611ff267ffffffffffffffff42166145eb565b61201567ffffffffffffffff60395460401c1667ffffffffffffffff421661460d565b916040519261202384614376565b600184525f602085015260408401926001600160a01b0383168452606085019187835260808601948786523360a088015260c08701956001600160a01b038b16875260e088019467ffffffffffffffff4216865267ffffffffffffffff85166101008a01528c5f52604160205260405f209289519e8f10156116d75761010060209f9a6001600160a01b039a6122529967ffffffffffffffff966005967f9153f3d102bc7dcb2ca44e62a897a3dacdadd64dc5b43cb26c0eac069e08851d9f96899760ff60ff198d54169116178b55602061210a908701516121048161448e565b8c61463b565b517fffffffffffffffffffff0000000000000000000000000000000000000000ffff75ffffffffffffffffffffffffffffffffffffffff00008c549260101b169116178a555160018a01555160028901558c60a0840151168d60038a0191166001600160a01b03198254161790558c8060048a01935116166001600160a01b0319835416178255517fffffffff0000000000000000ffffffffffffffffffffffffffffffffffffffff7bffffffffffffffff000000000000000000000000000000000000000083549260a01b1691161790550151169201911667ffffffffffffffff198254161790558484165f5260388b5260405f2061220a81546147b8565b9055604080518b8152602081019990995288019690965267ffffffffffffffff4281166060890152958616608088015290941660a086015281169416923392819060c0820190565b0390a4604051908152f35b7fde1cf8c5000000000000000000000000000000000000000000000000000000005f5260045ffd5b34610dcf576020600319360112610dcf576001600160a01b036122a661430c565b165f526040602052602060405f2054604051908152f35b34610dcf576122cb36614450565b9091926122d9828583614ff2565b6001600160a01b0383165f52603360205260405f206002604051916122fd83614393565b6001600160a01b0381541683526123166001820161451f565b602084015201549060ff8216604082015260ff8260081c161515606082015260a060ff808460101c1615938415608085015260181c16151591015261225d5760029361236d8230336001600160a01b038816615026565b6001600160a01b0384165f52603760205260405f2061238d8382546147ab565b90556001600160a01b0384165f52603860205260405f206123ae81546147b8565b90556123bb6034546147b8565b93846034556123d367ffffffffffffffff42166145eb565b6123f367ffffffffffffffff6039541667ffffffffffffffff421661460d565b916040519261240184614376565b5f84525f602085015260408401926001600160a01b0383168452606085019187835260808601948786523360a088015260c08701956001600160a01b038b16875260e088019467ffffffffffffffff4216865267ffffffffffffffff85166101008a01528c5f52604160205260405f209289519e8f10156116d75761010060209f9a6001600160a01b039a6122529967ffffffffffffffff966005967e72c0d4fb99a372c460789770d6c7b0130201bc94d24893bf949e82fb366bd09f96899760ff60ff198d54169116178b5560206124e0908701516121048161448e565b517fffffffffffffffffffff0000000000000000000000000000000000000000ffff75ffffffffffffffffffffffffffffffffffffffff00008c549260101b169116178a555160018a01555160028901558c60a0840151168d60038a0191166001600160a01b03198254161790558c8060048a01935116166001600160a01b0319835416178255517fffffffff0000000000000000ffffffffffffffffffffffffffffffffffffffff7bffffffffffffffff000000000000000000000000000000000000000083549260a01b1691161790550151169201911667ffffffffffffffff198254161790558460405195869516991697339767ffffffffffffffff4216918c879467ffffffffffffffff60a095819582949a999560c08a019b8a5260208a0152604089015216606087015216608085015216910152565b34610dcf576020600319360112610dcf576001600160a01b0361263c61430c565b165f526037602052602060405f2054604051908152f35b34610dcf575f600319360112610dcf5760206001600160a01b03603a5416604051908152f35b34610dcf575f600319360112610dcf576126d860405161269a6040826143af565b600581527f352e302e3000000000000000000000000000000000000000000000000000000060208201526040519182916020835260208301906142e7565b0390f35b34610dcf576040600319360112610dcf576127026126f861430c565b602435903361498b565b602060405160018152f35b34610dcf575f600319360112610dcf576020604051610bb88152f35b34610dcf576080600319360112610dcf5761274261430c565b6024358015158103610dcf5760443580159182158203610dcf5760643592831580158503610dcf57335f9081527f5dfc6369ede8c1331430c00b581919993675ec010140508e8a499d5c8bfbd937602052604090205460ff16156112eb576001600160a01b038616958615610d8b57308714610d8b575f878152603360205260409020546001600160a01b0316156129e05750816129d8575b501561294657505050805f52603760205260405f2054610d8b57805f52603860205260405f2054610d8b576032546001811115610d8b575f5b8181106128b3575b5050805f5260336020525f6002604082208281556001810161283e81546144e7565b908161286f575b505001557fd917aa0fd960acf55042bdc418462e797db8108d0bb75c1e770dbb691947fd825f80a2005b81601f8693116001146128865750555b8480612845565b818352602083206128a391601f0160051c84190190600101614fd7565b808252816020812091555561287f565b826001600160a01b036128c583614793565b90549060031b1c16146128da57600101612814565b5f198201918211612932576108ee6001600160a01b036108e06128fc94614793565b603254801561291e575f190161291461098782614793565b603255818061281c565b634e487b7160e01b5f52603160045260245ffd5b634e487b7160e01b5f52601160045260245ffd5b5f848152603360209081526040918290206002018054941515601081901b62ff000016941515600881901b61ff001663ffffff00199097169690961794909417951515601881901b63ff0000001696909617905581519384528301919091528101919091527f1175ae2330b4ff9a4577f573159eb554909d88fa901321b37d5bd72613cc57f79080606081015b0390a2005b9050856127db565b919081612d5f575b50156129fd576317dbc4cb60e21b5f5260045ffd5b845f52603360205260405f20856001600160a01b03198254161790556040517f95d89b410000000000000000000000000000000000000000000000000000000081525f81600481895afa908115610ddb575f91612ce5575b50855f526033602052600160405f20019080519067ffffffffffffffff8211610d7757612a8283546144e7565b601f8111612cab575b50602090601f8311600114612c4857612aba92915f9183612c3d5750508160011b915f199060031b1c19161790565b90555b6040517f313ce567000000000000000000000000000000000000000000000000000000008152602081600481895afa8015610ddb575f90612c00575b60ff91501660248111610d8b575f868152603360205260409020600201805463ff00000087151560181b1663ffffff00199093167fffffffffffffffffffffffffffffffffffffffffffffffffffffffff000000009091161761ff0085151560081b161762ff000086151560101b16179190911790556032549368010000000000000000851015610d7757612bbc6129d3926108ee8760017f1175ae2330b4ff9a4577f573159eb554909d88fa901321b37d5bd72613cc57f79901603255614793565b604051938493877f43b4d2df53b8ec4091761b182b40c973e846ef43f0966abcacd8e29a178bd7e55f80a21515845215156020840152151560408301526060820190565b506020813d602011612c35575b81612c1a602093836143af565b81010312610dcf575160ff81168103610dcf5760ff90612af9565b3d9150612c0d565b01519050898061051e565b90601f19831691845f52815f20925f5b818110612c935750908460019594939210612c7b575b505050811b019055612abd565b01515f1960f88460031b161c19169055888080612c6e565b92936020600181928786015181550195019301612c58565b82811115612a8b57612cdf90845f5260205f2090601f850160051c9060208610610e8f57601f82910160051c039101614fd7565b88612a8b565b90503d805f833e612cf681836143af565b810190602081830312610dcf5780519067ffffffffffffffff8211610dcf570181601f82011215610dcf57805190612d2d826143d2565b92612d3b60405194856143af565b82845260208383010111610dcf57815f9260208093018386015e8301015286612a55565b9050866129e8565b34610dcf575f600319360112610dcf5760206040515f8152f35b34610dcf575f600319360112610dcf5760206040517f523a704056dcd17bcf83bed8b68c59416dac1119be77755efe3bde0a64e46e0c8152f35b34610dcf575f600319360112610dcf576040515f7f52c63247e1f47db19d5ce0460030c497f067ca4cebf71ba98eeadabe20bace0454612dfa816144e7565b8084529060018116908115612eb35750600114612e36575b6126d883612e22818503826143af565b6040519182916020835260208301906142e7565b7f52c63247e1f47db19d5ce0460030c497f067ca4cebf71ba98eeadabe20bace045f9081527f46a2803e59a4de4e7a4c574b1243f25977ac4c77d5a1a4a609b5394cebb4a2aa939250905b808210612e9957509091508101602001612e22612e12565b919260018160209254838588010152019101909291612e81565b60ff191660208086019190915291151560051b84019091019150612e229050612e12565b34610dcf576020600319360112610dcf576001600160a01b03612ef861430c565b5f60a0604051612f0781614393565b828152606060208201528260408201528260608201528260808201520152165f5260336020526001600160a01b0360405f2060405190612f4682614393565b8281541682526002612f5a6001830161451f565b91602084019283520154604083019160ff821683526060840160ff8360081c161515815260ff612fc36080870193828660101c16151585528260a089019660181c161515865260405198899860208a52511660208901525160c0604089015260e08801906142e7565b9451166060860152511515608085015251151560a084015251151560c08301520390f35b34610dcf575f600319360112610dcf5760206040516107d08152f35b34610dcf576020600319360112610dcf57600435805f52604160205260405f20906040519061303182614376565b82549261304160ff8516846145df565b60ff8460081c16926130528461448e565b8360208201526001600160a01b03604082019560101c16855260018201546060820152600282015490608081019182526001600160a01b03600384015416906130dc60a082019683885260048601549367ffffffffffffffff600560c08601986001600160a01b0388168a528260e088019860a01c1688520154166101008501526116768261448e565b15613203575160028110156116d7575f19016131db5761311067ffffffffffffffff809251168260395460401c169061460d565b1642106131b3576001600160a01b0384817fed41bd03a372f0d3aec35288823e4fefd3a1442169e1d8fe315968301471158f9761315b6131989683806131ae9b511691511690614908565b865f52604160205260405f2061030061ff001982541617905551165f52603860205260405f2061318b815461462f565b905551169051903061498b565b6040805191825233602083015290918291820190565b0390a1005b7f4e0da4de000000000000000000000000000000000000000000000000000000005f5260045ffd5b7f02164961000000000000000000000000000000000000000000000000000000005f5260045ffd5b7ff41814a7000000000000000000000000000000000000000000000000000000005f5260045ffd5b34610dcf576040600319360112610dcf57613244614322565b6004355f527f02dd7bc7dec4dceedda775e58dd541e08a116c6c53815c0bd028192f7b6268006020526001600160a01b0360405f2091165f52602052602060ff60405f2054166040519015158152f35b34610dcf575f600319360112610dcf576020603b54604051908152f35b34610dcf576132bf3661434c565b9080156132d4575b9061127a916020936147ea565b506001600160a01b0381165f52604060205260405f20549081156132f857906132c7565b7f4c01bb3c000000000000000000000000000000000000000000000000000000005f5260045ffd5b34610dcf576020600319360112610dcf57613339614424565b335f9081527fb7db2dd08fcb62d0c9e08c51941cae53c267786a0b75803fb7960902fc8ef97d602052604090205460ff16156112eb5767ffffffffffffffff811615610d8b576112e990614f19565b34610dcf576020600319360112610dcf576133a1614424565b335f9081527fb7db2dd08fcb62d0c9e08c51941cae53c267786a0b75803fb7960902fc8ef97d602052604090205460ff16156112eb5767ffffffffffffffff811615610d8b576112e990614e97565b34610dcf576040600319360112610dcf5760043561340c614322565b335f9081527fb7db2dd08fcb62d0c9e08c51941cae53c267786a0b75803fb7960902fc8ef97d602052604090205460ff16156112eb576107d08211610f115781603d540361345657005b6112e991614dfc565b34610dcf576020600319360112610dcf57602061127a61347d61430c565b6001600160a01b03165f527f52c63247e1f47db19d5ce0460030c497f067ca4cebf71ba98eeadabe20bace0060205260405f205490565b34610dcf576020600319360112610dcf576134cd61430c565b335f9081527fb7db2dd08fcb62d0c9e08c51941cae53c267786a0b75803fb7960902fc8ef97d602052604090205460ff16156112eb576112e990614dbb565b34610dcf575f600319360112610dcf576032546135288161477b565b9061353660405192836143af565b8082526135428161477b565b90601f196020840192013683375f5b8181106135a5578284604051918291602083019060208452518091526040830191905f5b818110613583575050500390f35b82516001600160a01b0316845285945060209384019390920191600101613575565b6001600160a01b036135b682614793565b90549060031b1c169084518110156135db5760019160208260051b8701015201613551565b634e487b7160e01b5f52603260045260245ffd5b34610dcf576020600319360112610dcf576001600160a01b0361361061430c565b165f526033602052602060405f2060026040519161362d83614393565b6001600160a01b0381541683526136466001820161451f565b8484015201549060ff8216604082015260ff8260081c161515606082015260ff8260101c1615906001600160a01b0360ff83159485608085015260181c161515918260a08201525116151592836136a5575b5050506040519015158152f35b9250906136b6575b50828080613698565b9050826136ad565b34610dcf575f600319360112610dcf576001600160a01b037f00000000000000000000000000000000000000000000000000000000000000001630036137285760206040517f360894a13ba1a3210667c828492db98dca3e2076cc3735a920a3ca505d382bbc8152f35b7fe07c8dba000000000000000000000000000000000000000000000000000000005f5260045ffd5b6040600319360112610dcf5761376461430c565b60243567ffffffffffffffff8111610dcf5736602382011215610dcf576137959036906024816004013591016143ee565b6001600160a01b037f0000000000000000000000000000000000000000000000000000000000000000168030149081156139fc575b5061372857335f9081527fb7db2dd08fcb62d0c9e08c51941cae53c267786a0b75803fb7960902fc8ef97d602052604090205460ff16156112eb576001600160a01b038216916040517f52d1902d000000000000000000000000000000000000000000000000000000008152602081600481875afa5f91816139c8575b5061387857837f4c9c8ce3000000000000000000000000000000000000000000000000000000005f5260045260245ffd5b807f360894a13ba1a3210667c828492db98dca3e2076cc3735a920a3ca505d382bbc85920361399d5750813b1561397257806001600160a01b03197f360894a13ba1a3210667c828492db98dca3e2076cc3735a920a3ca505d382bbc5416177f360894a13ba1a3210667c828492db98dca3e2076cc3735a920a3ca505d382bbc557fbc7cd75a20ee27fd9adebab32041f755214dbc6bffa90cc0225b39da2e5c2d3b5f80a2815115613941575f808360206112e995519101845af461393b61570e565b916157f8565b50503461394a57005b7fb398979f000000000000000000000000000000000000000000000000000000005f5260045ffd5b7f4c9c8ce3000000000000000000000000000000000000000000000000000000005f5260045260245ffd5b7faa1d49a4000000000000000000000000000000000000000000000000000000005f5260045260245ffd5b9091506020813d6020116139f4575b816139e4602093836143af565b81010312610dcf57519085613847565b3d91506139d7565b90506001600160a01b037f360894a13ba1a3210667c828492db98dca3e2076cc3735a920a3ca505d382bbc54161415836137ca565b34610dcf575f600319360112610dcf5760206001600160a01b0360365416604051908152f35b34610dcf57602061127a613a6a3661434c565b9161466b565b34610dcf576040600319360112610dcf57613a89614322565b336001600160a01b03821603613aa5576112e990600435614ced565b7f6697b232000000000000000000000000000000000000000000000000000000005f5260045ffd5b34610dcf575f600319360112610dcf57602060405160128152f35b34610dcf576040600319360112610dcf576112e9600435613b07614322565b90613b40611d78825f527f02dd7bc7dec4dceedda775e58dd541e08a116c6c53815c0bd028192f7b626800602052600160405f20015490565b614c20565b34610dcf576020600319360112610dcf57335f9081527fb7db2dd08fcb62d0c9e08c51941cae53c267786a0b75803fb7960902fc8ef97d60205260409020546004359060ff16156112eb576107d08111610f115780603c5403613ba457005b6112e990614ac7565b34610dcf576020600319360112610dcf57602061127a6004355f527f02dd7bc7dec4dceedda775e58dd541e08a116c6c53815c0bd028192f7b626800602052600160405f20015490565b34610dcf576060600319360112610dcf57613c1061430c565b613c18614322565b60443590613c56836001600160a01b03165f527f52c63247e1f47db19d5ce0460030c497f067ca4cebf71ba98eeadabe20bace0160205260405f2090565b6001600160a01b0333165f5260205260405f2054925f198403613c7e575b612702935061498b565b828410613d4d576001600160a01b03811615613d21573315613cf55761270293613cd8826001600160a01b03165f527f52c63247e1f47db19d5ce0460030c497f067ca4cebf71ba98eeadabe20bace0160205260405f2090565b6001600160a01b0333165f526020528360405f2091039055613c74565b7f94280d62000000000000000000000000000000000000000000000000000000005f525f60045260245ffd5b7fe602df05000000000000000000000000000000000000000000000000000000005f525f60045260245ffd5b82847ffb8f41b2000000000000000000000000000000000000000000000000000000005f523360045260245260445260645ffd5b34610dcf576020600319360112610dcf57600435805f52604160205260405f209060405190613daf82614376565b825492613dbf60ff8516846145df565b60ff8460081c1693613dd08561448e565b8460208501526001600160a01b03604085019160101c16815260018201549360608101948552600283015460808201526001600160a01b0360038401541690613e5a60a082019783895260048601549367ffffffffffffffff600560c08601986001600160a01b0388168a528260e088019860a01c1688520154166101008501526116768261448e565b15613203575160028110156116d7576131db57613e8867ffffffffffffffff8092511682603954169061460d565b1642106131b357846001600160a01b03806131ae96613ed36131989683807fac101a0130f95ce2cfe99ad0f1145b9d6061ff75958224e7e4c73399d79fcaae9c511691511690614908565b5193818151165f52603760205260405f20613eef8682546145d2565b9055818151165f52603860205260405f20613f0a815461462f565b9055865f52604160205260405f2061030061ff0019825416179055511691511690614936565b34610dcf575f600319360112610dcf5760207f52c63247e1f47db19d5ce0460030c497f067ca4cebf71ba98eeadabe20bace0254604051908152f35b34610dcf575f600319360112610dcf576020603d54604051908152f35b34610dcf575f600319360112610dcf5760206001600160a01b0360355416604051908152f35b34610dcf57613fbd3661434c565b908015613ffe575b9061127a91613fe16020945f90603c5480613fe6575b506145d2565b61466b565b819250613ff690612710926145bf565b049087613fdb565b506001600160a01b0381165f52604060205260405f20549081156132f85790613fc5565b34610dcf576040600319360112610dcf5761403b61430c565b602435903315613d21576001600160a01b0316908115613cf557335f9081527f52c63247e1f47db19d5ce0460030c497f067ca4cebf71ba98eeadabe20bace0160205260409020825f526020528060405f20556040519081527f8c5be1e5ebec7d5bd14f71427d1e84f3dd0314c0f7b2291e5b200ac8c7c3b92560203392a3602060405160018152f35b34610dcf575f600319360112610dcf576040515f7f52c63247e1f47db19d5ce0460030c497f067ca4cebf71ba98eeadabe20bace0354614104816144e7565b8084529060018116908115612eb3575060011461412b576126d883612e22818503826143af565b7f52c63247e1f47db19d5ce0460030c497f067ca4cebf71ba98eeadabe20bace035f9081527f2ae08a8e29253f69ac5d979a101956ab8f8d9d7ded63fa7a83b16fc47648eab0939250905b80821061418e57509091508101602001612e22612e12565b919260018160209254838588010152019101909291614176565b34610dcf575f600319360112610dcf57602067ffffffffffffffff60395460401c16604051908152f35b34610dcf575f600319360112610dcf57602067ffffffffffffffff60395416604051908152f35b34610dcf576020600319360112610dcf576004357fffffffff000000000000000000000000000000000000000000000000000000008116809103610dcf57807f63b3a5b50000000000000000000000000000000000000000000000000000000060209214908115614270575b506040519015158152f35b7f7965db0b000000000000000000000000000000000000000000000000000000008114915081156142a3575b5082614265565b7f01ffc9a7000000000000000000000000000000000000000000000000000000009150148261429c565b34610dcf575f600319360112610dcf576020906034548152f35b90601f19601f602080948051918291828752018686015e5f8582860101520116010190565b600435906001600160a01b0382168203610dcf57565b602435906001600160a01b0382168203610dcf57565b35906001600160a01b0382168203610dcf57565b6003196060910112610dcf5760043590602435906044356001600160a01b0381168103610dcf5790565b610120810190811067ffffffffffffffff821117610d7757604052565b60c0810190811067ffffffffffffffff821117610d7757604052565b90601f601f19910116810190811067ffffffffffffffff821117610d7757604052565b67ffffffffffffffff8111610d7757601f01601f191660200190565b9291926143fa826143d2565b9161440860405193846143af565b829481845281830111610dcf578281602093845f960137010152565b6004359067ffffffffffffffff82168203610dcf57565b359067ffffffffffffffff82168203610dcf57565b6003196080910112610dcf5760043590602435906044356001600160a01b0381168103610dcf57906064356001600160a01b0381168103610dcf5790565b600411156116d757565b9181601f84011215610dcf5782359167ffffffffffffffff8311610dcf576020808501948460051b010111610dcf57565b9080601f83011215610dcf578160206144e4933591016143ee565b90565b90600182811c92168015614515575b602083101461450157565b634e487b7160e01b5f52602260045260245ffd5b91607f16916144f6565b9060405191825f825492614532846144e7565b808452936001811690811561459d5750600114614559575b50614557925003836143af565b565b90505f9291925260205f20905f915b818310614581575050906020614557928201015f61454a565b6020919350806001915483858901015201910190918492614568565b6020935061455795925060ff1991501682840152151560051b8201015f61454a565b8181029291811591840414171561293257565b9190820391821161293257565b60028210156116d75752565b67ffffffffffffffff62093a809116019067ffffffffffffffff821161293257565b9067ffffffffffffffff8091169116019067ffffffffffffffff821161293257565b8015612932575f190190565b906146458161448e565b61ff001961ff0083549260081b169116179055565b60ff16604d811161293257600a0a90565b811592838015614773575b61476b576001600160a01b03165f52603360205260405f2060026040519161469d83614393565b6001600160a01b0381541683526146b66001820161451f565b602084015201549060ff60408201928181168452818160081c1615156060840152818160101c161515608084015260181c16159060a08215910152614743575160ff1692670de0b6b3a76400008381029384041417156129325761471f916305f5e100916152c9565b906147299061465a565b6ec097ce7bc90715b34b9f1000000000906144e492614db0565b7f1c5d65c0000000000000000000000000000000000000000000000000000000005f5260045ffd5b505050505f90565b508115614676565b67ffffffffffffffff8111610d775760051b60200190565b6032548110156135db5760325f5260205f2001905f90565b9190820180921161293257565b5f1981146129325760010190565b91908110156135db5760051b0190565b356001600160a01b0381168103610dcf5790565b9091821580156148cd575b6148c6576001600160a01b03165f52603360205260405f2060026040519161481c83614393565b6001600160a01b0381541683526148356001820161451f565b60208401520154604082019160ff8216835260ff8260081c161515606082015260a060ff808460101c1615938415608085015260181c16151591015261225d575160ff1691670de0b6b3a7640000916ec097ce7bc90715b34b9f1000000000916148a8926148a292614db0565b9261465a565b818102918183041490151715612932576305f5e1006144e4926152c9565b5050505f90565b5081156147f5565b6001600160a01b0316159081156148f5575b506148f157600190565b5f90565b90506149008161448e565b15155f6148e7565b6001600160a01b03163314159081614922575b506112eb57565b6001600160a01b031633141590505f61491b565b614557926001600160a01b03604051937fa9059cbb0000000000000000000000000000000000000000000000000000000060208601521660248401526044830152604482526149866064836143af565b61523b565b6001600160a01b0316908115611b3c576001600160a01b0316918215614a9b57815f527f52c63247e1f47db19d5ce0460030c497f067ca4cebf71ba98eeadabe20bace0060205260405f2054818110614a6957817fddf252ad1be2c89b69c2b068fc378daa952ba7f163c4a11628f55a4df523b3ef92602092855f527f52c63247e1f47db19d5ce0460030c497f067ca4cebf71ba98eeadabe20bace0084520360405f2055845f527f52c63247e1f47db19d5ce0460030c497f067ca4cebf71ba98eeadabe20bace00825260405f20818154019055604051908152a3565b827fe450d38c000000000000000000000000000000000000000000000000000000005f5260045260245260445260645ffd5b7fec442f05000000000000000000000000000000000000000000000000000000005f525f60045260245ffd5b60207facf03ff480419a5d7903e275441893a9ffdb5167d7c7697667ece7a0f81bf9969180603c55604051908152a1565b805f527f02dd7bc7dec4dceedda775e58dd541e08a116c6c53815c0bd028192f7b62680060205260405f206001600160a01b0333165f5260205260ff60405f20541615614b425750565b7fe2517d3f000000000000000000000000000000000000000000000000000000005f523360045260245260445ffd5b6001600160a01b0381165f9081527fb7db2dd08fcb62d0c9e08c51941cae53c267786a0b75803fb7960902fc8ef97d602052604090205460ff16614c1b576001600160a01b03165f8181527fb7db2dd08fcb62d0c9e08c51941cae53c267786a0b75803fb7960902fc8ef97d60205260408120805460ff191660011790553391907f2f8788117e7eff1d82e926ec794901d17c78024a50270940304540a733656f0d8180a4600190565b505f90565b805f527f02dd7bc7dec4dceedda775e58dd541e08a116c6c53815c0bd028192f7b62680060205260405f206001600160a01b0383165f5260205260ff60405f205416155f14614ce757805f527f02dd7bc7dec4dceedda775e58dd541e08a116c6c53815c0bd028192f7b62680060205260405f206001600160a01b0383165f5260205260405f20600160ff198254161790556001600160a01b03339216907f2f8788117e7eff1d82e926ec794901d17c78024a50270940304540a733656f0d5f80a4600190565b50505f90565b805f527f02dd7bc7dec4dceedda775e58dd541e08a116c6c53815c0bd028192f7b62680060205260405f206001600160a01b0383165f5260205260ff60405f2054165f14614ce757805f527f02dd7bc7dec4dceedda775e58dd541e08a116c6c53815c0bd028192f7b62680060205260405f206001600160a01b0383165f5260205260405f2060ff1981541690556001600160a01b03339216907ff6391f5c32d9c69d2a47ea670b442974b53935d1edc7fd64eb21e047a839171b5f80a4600190565b906144e492916152c9565b6001600160a01b0316806001600160a01b031960365416176036557fa8789f194e5a01cf3e250cce95fee7483a613566f94d44d43c291292ddc9714e5f80a2565b6020907f38d27f1228eafcf2d29ceafa6a2303ce003cdc89335ec99d1560f2de4bb36af192603d54151580614e73575b614e43575b5042603f5580603d55604051908152a1565b6001600160a01b03165f5260408252614e6c60405f2054614e66603f54426145d2565b9061538b565b505f614e31565b506001600160a01b0381165f526033835260ff600260405f20015460081c16614e2c565b62093a8067ffffffffffffffff82161115614f14575062093a805b67ffffffffffffffff6039549116908167ffffffffffffffff821603614ed6575050565b817f1af257f4d3b2744c9ed240551784bd42c0f43f8432a1e20cdc4830896c9866d29267ffffffffffffffff196020931617603955604051908152a1565b614eb2565b62093a8067ffffffffffffffff82161115614fd2575062093a805b6039549067ffffffffffffffff811667ffffffffffffffff8360401c1603614f5a575050565b7f0b79c75a9eeb8bebcb13cdce5649fa45faf2418b615555c242ae7f6e50324d89917fffffffffffffffffffffffffffffffff0000000000000000ffffffffffffffff6fffffffffffffffff000000000000000060209360401b169116178060395567ffffffffffffffff6040519160401c168152a1565b614f34565b5f5b828110614fe557505050565b5f82820155600101614fd9565b159190821561501d575b50811561500b575b50610d8b57565b6001600160a01b03915016155f615004565b1591505f614ffc565b9091926001600160a01b036145579481604051957f23b872dd0000000000000000000000000000000000000000000000000000000060208801521660248601521660448401526064830152606482526149866084836143af565b60207fc637eeeaf41270ac15287330fb31bb21046b9c2ebe7fe6d9cfc8fc42ad265eb191603b546150bd575b42603e5580603b55604051908152a1565b6150d16150cc603e54426145d2565b6154c9565b506150ac565b6001600160a01b03165f52604060205260405f2054801561514d5761271061511192828082115f146151435761510c916145d2565b6152c9565b610bb81061511b57565b7f5f54a302000000000000000000000000000000000000000000000000000000005f5260045ffd5b9061510c916145d2565b5050565b6001600160a01b0316308114614c1b57805f52603860205260405f2054614c1b57805f52603760205260405f2054614c1b576020602491604051928380927f70a082310000000000000000000000000000000000000000000000000000000082523060048301525afa908115610ddb575f916151cb575090565b90506020813d6020116151f2575b816151e6602093836143af565b81010312610dcf575190565b3d91506151d9565b6001600160a01b0316806001600160a01b0319603a541617603a557fb43a54cb7c4fdffa59c4df968b7081b9032c551d37d487662a5012a147673aaa5f80a2565b5f806001600160a01b0361526493169360208151910182865af161525d61570e565b90836157f8565b80519081151591826152a5575b505061527a5750565b7f5274afe7000000000000000000000000000000000000000000000000000000005f5260045260245ffd5b8192509060209181010312610dcf5760200151801590811503610dcf575f80615271565b9091828202915f1984820993838086109503948086039514615369578483111561534157829109815f0382168092046002816003021880820260020302808202600203028082026002030280820260020302808202600203028091026002030293600183805f03040190848311900302920304170290565b7f227bc153000000000000000000000000000000000000000000000000000000005f5260045ffd5b505091508115615377570490565b634e487b7160e01b5f52601260045260245ffd5b6001600160a01b03603654169081156148c6576020916154116153ea6001600160a01b03603a54166001600160a01b03165f527f52c63247e1f47db19d5ce0460030c497f067ca4cebf71ba98eeadabe20bace0060205260405f205490565b7f52c63247e1f47db19d5ce0460030c497f067ca4cebf71ba98eeadabe20bace02546145d2565b935f603d5493615467604051978896879586947fd455e537000000000000000000000000000000000000000000000000000000008652600486019094939260609260808301968352602083015260408201520152565b03925af1908115610ddb575f91615497575b50806154825790565b6144e4816001600160a01b03603a541661573d565b90506020813d6020116154c1575b816154b2602093836143af565b81010312610dcf57515f615479565b3d91506154a5565b64496cebb80061552e6001600160a01b03603a5416926155296155206153ea866001600160a01b03165f527f52c63247e1f47db19d5ce0460030c497f067ca4cebf71ba98eeadabe20bace0060205260405f205490565b603b54906145bf565b6145bf565b0490818061553b57505090565b6144e49161573d565b907fb061909b5c5220be2646a4609c124ff6b34253660de8f44a91064a221a68ff1991805f52604160205260405f2061020061ff00198254161790556001600160a01b036040830151165f52603860205260405f206155a3815461462f565b90556155eb60606001600160a01b0360a085015116936155ca60808201958651903061498b565b01519251604051938493846040919493926060820195825260208201520152565b0390a1565b907f38aba56e3e29bc6d5cc5f5dc08f90ca9c20a74f13edb1522a529f849bf37840a91805f52604160205260405f2061020061ff00198254161790556155eb6080606084016156966001600160a01b0382516040880190828251165f52603760205261566160405f209182546145d2565b9055818151165f52603860205260405f2061567c815461462f565b905551166001600160a01b0360a088015116835191614936565b51930151604051938493846040919493926060820195825260208201520152565b60ff7ff0c57e16840df040f15088dc2f81fe391c3923bec73e23a9662efc9c229c6a005460401c16156156e657565b7fd7e6bcf8000000000000000000000000000000000000000000000000000000005f5260045ffd5b3d15615738573d9061571f826143d2565b9161572d60405193846143af565b82523d5f602084013e565b606090565b6001600160a01b0316908115614a9b577fddf252ad1be2c89b69c2b068fc378daa952ba7f163c4a11628f55a4df523b3ef60208261579d5f947f52c63247e1f47db19d5ce0460030c497f067ca4cebf71ba98eeadabe20bace02546147ab565b7f52c63247e1f47db19d5ce0460030c497f067ca4cebf71ba98eeadabe20bace02558484527f52c63247e1f47db19d5ce0460030c497f067ca4cebf71ba98eeadabe20bace00825260408420818154019055604051908152a3565b90615835575080511561580d57805190602001fd5b7f1425ea42000000000000000000000000000000000000000000000000000000005f5260045ffd5b8151158061587b575b615846575090565b6001600160a01b03907f9996b315000000000000000000000000000000000000000000000000000000005f521660045260245ffd5b50803b1561583e56fea2646970667358221220afe4655fd8792c8b248c90c88e0ee6a699d4cacb25a24fdd01f91ce13b905bcd64736f6c63430008220033f0c57e16840df040f15088dc2f81fe391c3923bec73e23a9662efc9c229c6a00"
        },
        {
          "transactionType": "CREATE2",
          "contractName": "ERC1967Proxy",
          "address": "0x6d1a4c0878ad24793b1655ae1f78cfa4522ba765",
          "initCode": "0x60806040526102a88038038061001481610168565b92833981016040828203126101645781516001600160a01b03811692909190838303610164576020810151906001600160401b03821161016457019281601f8501121561016457835161006e610069826101a1565b610168565b9481865260208601936020838301011161016457815f926020809301865e86010152823b15610152577f360894a13ba1a3210667c828492db98dca3e2076cc3735a920a3ca505d382bbc80546001600160a01b031916821790557fbc7cd75a20ee27fd9adebab32041f755214dbc6bffa90cc0225b39da2e5c2d3b5f80a282511561013a575f8091610122945190845af43d15610132573d91610113610069846101a1565b9283523d5f602085013e6101bc565b505b604051608d908161021b8239f35b6060916101bc565b50505034156101245763b398979f60e01b5f5260045ffd5b634c9c8ce360e01b5f5260045260245ffd5b5f80fd5b6040519190601f01601f191682016001600160401b0381118382101761018d57604052565b634e487b7160e01b5f52604160045260245ffd5b6001600160401b03811161018d57601f01601f191660200190565b906101e057508051156101d157805190602001fd5b630a12f52160e11b5f5260045ffd5b81511580610211575b6101f1575090565b639996b31560e01b5f9081526001600160a01b0391909116600452602490fd5b50803b156101e956fe60806040525f8073ffffffffffffffffffffffffffffffffffffffff7f360894a13ba1a3210667c828492db98dca3e2076cc3735a920a3ca505d382bbc5416368280378136915af43d5f803e156053573d5ff35b3d5ffdfea2646970667358221220b2f3e28cee4ee6b3346f8647f66a6e079823653c787e262a7e51fc4518a352ac64736f6c6343000822003300000000000000000000000018b97206ca50982d51e9943ff53cb9d8a238e93900000000000000000000000000000000000000000000000000000000000000400000000000000000000000000000000000000000000000000000000000000224f2edc0ab0000000000000000000000000000000000000000000000000000000000000020000000000000000000000000a0b86991c6218b36c1d19d4a2e9eb0ce3606eb480000000000000000000000000d94255fde65d302616b02a2f070cdb21190d420000000000000000000000000000000000000000000000000000000000000018000000000000000000000000000000000000000000000000000000000000001c000000000000000000000000038f6a1b46144faee6a6d9f79d8de264c18e23848000000000000000000000000000000000000000000000000000000000003f480000000000000000000000000000000000000000000000000000000000003f4800000000000000000000000007bb5e307edf80630f153bd28789b4365efe4cce3000000000000000000000000000000000000000000000000000000000000012c00000000000000000000000000000000000000000000000000000000000000960000000000000000000000000000000000000000000000000000000000000000000000000000000000000000000000000000000000000000000000000000000000000000000000000000000000000000000000000000000000000000000000126b706b2055534420416c7068612046756e64000000000000000000000000000000000000000000000000000000000000000000000000000000000000000000046b5553440000000000000000000000000000000000000000000000000000000000000000000000000000000000000000000000000000000000000000"
        }
      ],
      "isFixedGasLimit": false
    }
  ],
  "receipts": [
    {
      "status": "0x1",
      "cumulativeGasUsed": "0x129f939",
      "logs": [
        {
          "address": "0xd8e63d2ca7a098e2b939bf4733e94c5768d3b966",
          "topics": [
            "0x8be0079c531659141344cd1fd0a4f28419497f9722a3daafe3b4186f6b6457e0",
            "0x0000000000000000000000000000000000000000000000000000000000000000",
            "0x0000000000000000000000000d94255fde65d302616b02a2f070cdb21190d420"
          ],
          "data": "0x",
          "blockHash": "0xb14c595e9f5aa5c2965d67ae528af3a7d1948a7d170e90465f0af060b59d2b50",
          "blockNumber": "0x17d613c",
          "blockTimestamp": "0x69f3827f",
          "transactionHash": "0x92787688bf6dc99ff5cb557d831fb7c26031a96c1c26a0828d9dd8535d34635e",
          "transactionIndex": "0xa3",
          "logIndex": "0x13a",
          "removed": false
        },
        {
          "address": "0xd8e63d2ca7a098e2b939bf4733e94c5768d3b966",
          "topics": [
            "0x34d3b96a088381c6843a1f9d94d251afa88f83cc7a0d17fc23a7057506a3fc6d",
            "0x000000000000000000000000000000000000addb49795b0f9ba5bc298cdda236",
            "0x0000000000000000000000000d94255fde65d302616b02a2f070cdb21190d420",
            "0x0000000000000000000000000d94255fde65d302616b02a2f070cdb21190d420"
          ],
          "data": "0x0000000000000000000000000d94255fde65d302616b02a2f070cdb21190d420",
          "blockHash": "0xb14c595e9f5aa5c2965d67ae528af3a7d1948a7d170e90465f0af060b59d2b50",
          "blockNumber": "0x17d613c",
          "blockTimestamp": "0x69f3827f",
          "transactionHash": "0x92787688bf6dc99ff5cb557d831fb7c26031a96c1c26a0828d9dd8535d34635e",
          "transactionIndex": "0xa3",
          "logIndex": "0x13b",
          "removed": false
        },
        {
          "address": "0xd8e63d2ca7a098e2b939bf4733e94c5768d3b966",
          "topics": [
            "0xc7f505b2f371ae2175ee4913f4499e1f2633a7b5936321eed1cdaeb6115181d2"
          ],
          "data": "0x0000000000000000000000000000000000000000000000000000000000000001",
          "blockHash": "0xb14c595e9f5aa5c2965d67ae528af3a7d1948a7d170e90465f0af060b59d2b50",
          "blockNumber": "0x17d613c",
          "blockTimestamp": "0x69f3827f",
          "transactionHash": "0x92787688bf6dc99ff5cb557d831fb7c26031a96c1c26a0828d9dd8535d34635e",
          "transactionIndex": "0xa3",
          "logIndex": "0x13c",
          "removed": false
        },
        {
          "address": "0x000000000000addb49795b0f9ba5bc298cdda236",
          "topics": [
            "0x2150ada912bf189ed721c44211199e270903fc88008c2a1e1e889ef30fe67c5f",
            "0x000000000000000000000000d8e63d2ca7a098e2b939bf4733e94c5768d3b966",
            "0x0000000000000000000000009646fdad06d3e24444381f44362a3b0eb343d337"
          ],
          "data": "0x",
          "blockHash": "0xb14c595e9f5aa5c2965d67ae528af3a7d1948a7d170e90465f0af060b59d2b50",
          "blockNumber": "0x17d613c",
          "blockTimestamp": "0x69f3827f",
          "transactionHash": "0x92787688bf6dc99ff5cb557d831fb7c26031a96c1c26a0828d9dd8535d34635e",
          "transactionIndex": "0xa3",
          "logIndex": "0x13d",
          "removed": false
        },
        {
          "address": "0xb15400bb735cf9d91e09d097f2da588ebe760d49",
          "topics": [
            "0x8be0079c531659141344cd1fd0a4f28419497f9722a3daafe3b4186f6b6457e0",
            "0x0000000000000000000000000000000000000000000000000000000000000000",
            "0x0000000000000000000000000d94255fde65d302616b02a2f070cdb21190d420"
          ],
          "data": "0x",
          "blockHash": "0xb14c595e9f5aa5c2965d67ae528af3a7d1948a7d170e90465f0af060b59d2b50",
          "blockNumber": "0x17d613c",
          "blockTimestamp": "0x69f3827f",
          "transactionHash": "0x92787688bf6dc99ff5cb557d831fb7c26031a96c1c26a0828d9dd8535d34635e",
          "transactionIndex": "0xa3",
          "logIndex": "0x13e",
          "removed": false
        },
        {
          "address": "0xb15400bb735cf9d91e09d097f2da588ebe760d49",
          "topics": [
            "0x34d3b96a088381c6843a1f9d94d251afa88f83cc7a0d17fc23a7057506a3fc6d",
            "0x000000000000000000000000000000000000addb49795b0f9ba5bc298cdda236",
            "0x0000000000000000000000000d94255fde65d302616b02a2f070cdb21190d420",
            "0x0000000000000000000000000d94255fde65d302616b02a2f070cdb21190d420"
          ],
          "data": "0x0000000000000000000000000d94255fde65d302616b02a2f070cdb21190d420",
          "blockHash": "0xb14c595e9f5aa5c2965d67ae528af3a7d1948a7d170e90465f0af060b59d2b50",
          "blockNumber": "0x17d613c",
          "blockTimestamp": "0x69f3827f",
          "transactionHash": "0x92787688bf6dc99ff5cb557d831fb7c26031a96c1c26a0828d9dd8535d34635e",
          "transactionIndex": "0xa3",
          "logIndex": "0x13f",
          "removed": false
        },
        {
          "address": "0xb15400bb735cf9d91e09d097f2da588ebe760d49",
          "topics": [
            "0xc7f505b2f371ae2175ee4913f4499e1f2633a7b5936321eed1cdaeb6115181d2"
          ],
          "data": "0x0000000000000000000000000000000000000000000000000000000000000001",
          "blockHash": "0xb14c595e9f5aa5c2965d67ae528af3a7d1948a7d170e90465f0af060b59d2b50",
          "blockNumber": "0x17d613c",
          "blockTimestamp": "0x69f3827f",
          "transactionHash": "0x92787688bf6dc99ff5cb557d831fb7c26031a96c1c26a0828d9dd8535d34635e",
          "transactionIndex": "0xa3",
          "logIndex": "0x140",
          "removed": false
        },
        {
          "address": "0x000000000000addb49795b0f9ba5bc298cdda236",
          "topics": [
            "0x2150ada912bf189ed721c44211199e270903fc88008c2a1e1e889ef30fe67c5f",
            "0x000000000000000000000000b15400bb735cf9d91e09d097f2da588ebe760d49",
            "0x0000000000000000000000009646fdad06d3e24444381f44362a3b0eb343d337"
          ],
          "data": "0x",
          "blockHash": "0xb14c595e9f5aa5c2965d67ae528af3a7d1948a7d170e90465f0af060b59d2b50",
          "blockNumber": "0x17d613c",
          "blockTimestamp": "0x69f3827f",
          "transactionHash": "0x92787688bf6dc99ff5cb557d831fb7c26031a96c1c26a0828d9dd8535d34635e",
          "transactionIndex": "0xa3",
          "logIndex": "0x141",
          "removed": false
        },
        {
          "address": "0x988a15711ccdf16c06010bb41aaebf39e407cd7f",
          "topics": [
            "0x8be0079c531659141344cd1fd0a4f28419497f9722a3daafe3b4186f6b6457e0",
            "0x0000000000000000000000000000000000000000000000000000000000000000",
            "0x0000000000000000000000000d94255fde65d302616b02a2f070cdb21190d420"
          ],
          "data": "0x",
          "blockHash": "0xb14c595e9f5aa5c2965d67ae528af3a7d1948a7d170e90465f0af060b59d2b50",
          "blockNumber": "0x17d613c",
          "blockTimestamp": "0x69f3827f",
          "transactionHash": "0x92787688bf6dc99ff5cb557d831fb7c26031a96c1c26a0828d9dd8535d34635e",
          "transactionIndex": "0xa3",
          "logIndex": "0x142",
          "removed": false
        },
        {
          "address": "0x988a15711ccdf16c06010bb41aaebf39e407cd7f",
          "topics": [
            "0x34d3b96a088381c6843a1f9d94d251afa88f83cc7a0d17fc23a7057506a3fc6d",
            "0x000000000000000000000000000000000000addb49795b0f9ba5bc298cdda236",
            "0x0000000000000000000000000d94255fde65d302616b02a2f070cdb21190d420",
            "0x0000000000000000000000000d94255fde65d302616b02a2f070cdb21190d420"
          ],
          "data": "0x0000000000000000000000000d94255fde65d302616b02a2f070cdb21190d420",
          "blockHash": "0xb14c595e9f5aa5c2965d67ae528af3a7d1948a7d170e90465f0af060b59d2b50",
          "blockNumber": "0x17d613c",
          "blockTimestamp": "0x69f3827f",
          "transactionHash": "0x92787688bf6dc99ff5cb557d831fb7c26031a96c1c26a0828d9dd8535d34635e",
          "transactionIndex": "0xa3",
          "logIndex": "0x143",
          "removed": false
        },
        {
          "address": "0x988a15711ccdf16c06010bb41aaebf39e407cd7f",
          "topics": [
            "0xc7f505b2f371ae2175ee4913f4499e1f2633a7b5936321eed1cdaeb6115181d2"
          ],
          "data": "0x0000000000000000000000000000000000000000000000000000000000000001",
          "blockHash": "0xb14c595e9f5aa5c2965d67ae528af3a7d1948a7d170e90465f0af060b59d2b50",
          "blockNumber": "0x17d613c",
          "blockTimestamp": "0x69f3827f",
          "transactionHash": "0x92787688bf6dc99ff5cb557d831fb7c26031a96c1c26a0828d9dd8535d34635e",
          "transactionIndex": "0xa3",
          "logIndex": "0x144",
          "removed": false
        },
        {
          "address": "0x000000000000addb49795b0f9ba5bc298cdda236",
          "topics": [
            "0x2150ada912bf189ed721c44211199e270903fc88008c2a1e1e889ef30fe67c5f",
            "0x000000000000000000000000988a15711ccdf16c06010bb41aaebf39e407cd7f",
            "0x0000000000000000000000009646fdad06d3e24444381f44362a3b0eb343d337"
          ],
          "data": "0x",
          "blockHash": "0xb14c595e9f5aa5c2965d67ae528af3a7d1948a7d170e90465f0af060b59d2b50",
          "blockNumber": "0x17d613c",
          "blockTimestamp": "0x69f3827f",
          "transactionHash": "0x92787688bf6dc99ff5cb557d831fb7c26031a96c1c26a0828d9dd8535d34635e",
          "transactionIndex": "0xa3",
          "logIndex": "0x145",
          "removed": false
        },
        {
          "address": "0x38f6a1b46144faee6a6d9f79d8de264c18e23848",
          "topics": [
            "0xecdf3a3effea5783a3c4c2140e677577666428d44ed9d474a0b3a4c9943f8440",
            "0x000000000000000000000000d8e63d2ca7a098e2b939bf4733e94c5768d3b966"
          ],
          "data": "0x",
          "blockHash": "0xb14c595e9f5aa5c2965d67ae528af3a7d1948a7d170e90465f0af060b59d2b50",
          "blockNumber": "0x17d613c",
          "blockTimestamp": "0x69f3827f",
          "transactionHash": "0x92787688bf6dc99ff5cb557d831fb7c26031a96c1c26a0828d9dd8535d34635e",
          "transactionIndex": "0xa3",
          "logIndex": "0x146",
          "removed": false
        },
        {
          "address": "0x38f6a1b46144faee6a6d9f79d8de264c18e23848",
          "topics": [
            "0xecdf3a3effea5783a3c4c2140e677577666428d44ed9d474a0b3a4c9943f8440",
            "0x0000000000000000000000000d94255fde65d302616b02a2f070cdb21190d420"
          ],
          "data": "0x",
          "blockHash": "0xb14c595e9f5aa5c2965d67ae528af3a7d1948a7d170e90465f0af060b59d2b50",
          "blockNumber": "0x17d613c",
          "blockTimestamp": "0x69f3827f",
          "transactionHash": "0x92787688bf6dc99ff5cb557d831fb7c26031a96c1c26a0828d9dd8535d34635e",
          "transactionIndex": "0xa3",
          "logIndex": "0x147",
          "removed": false
        },
        {
          "address": "0x38f6a1b46144faee6a6d9f79d8de264c18e23848",
          "topics": [
            "0x141df868a6331af528e38c83b7aa03edc19be66e37ae67f9285bf4f8e3c6a1a8",
            "0x000000000000000000000000a6b71e26c5e0845f74c812102ca7114b6a896ab2"
          ],
          "data": "0x000000000000000000000000000000000000000000000000000000000000008000000000000000000000000000000000000000000000000000000000000000010000000000000000000000002dd68b007b46fbe91b9a7c3eda5a7a1063cb5b47000000000000000000000000fd0732dc9e303f09fcef3a7388ad10a83459ec990000000000000000000000000000000000000000000000000000000000000001000000000000000000000000a4703438f8cc4fc2c2503a7e43935da16ba74652",
          "blockHash": "0xb14c595e9f5aa5c2965d67ae528af3a7d1948a7d170e90465f0af060b59d2b50",
          "blockNumber": "0x17d613c",
          "blockTimestamp": "0x69f3827f",
          "transactionHash": "0x92787688bf6dc99ff5cb557d831fb7c26031a96c1c26a0828d9dd8535d34635e",
          "transactionIndex": "0xa3",
          "logIndex": "0x148",
          "removed": false
        },
        {
          "address": "0xa6b71e26c5e0845f74c812102ca7114b6a896ab2",
          "topics": [
            "0x4f51faf6c4561ff95f067657e43439f0f856d97c04d9ec9070a6199ad418e235"
          ],
          "data": "0x00000000000000000000000038f6a1b46144faee6a6d9f79d8de264c18e2384800000000000000000000000041675c099f32341bf84bfc5382af534df5c7461a",
          "blockHash": "0xb14c595e9f5aa5c2965d67ae528af3a7d1948a7d170e90465f0af060b59d2b50",
          "blockNumber": "0x17d613c",
          "blockTimestamp": "0x69f3827f",
          "transactionHash": "0x92787688bf6dc99ff5cb557d831fb7c26031a96c1c26a0828d9dd8535d34635e",
          "transactionIndex": "0xa3",
          "logIndex": "0x149",
          "removed": false
        },
        {
          "address": "0x7bb5e307edf80630f153bd28789b4365efe4cce3",
          "topics": [
            "0xecdf3a3effea5783a3c4c2140e677577666428d44ed9d474a0b3a4c9943f8440",
            "0x000000000000000000000000988a15711ccdf16c06010bb41aaebf39e407cd7f"
          ],
          "data": "0x",
          "blockHash": "0xb14c595e9f5aa5c2965d67ae528af3a7d1948a7d170e90465f0af060b59d2b50",
          "blockNumber": "0x17d613c",
          "blockTimestamp": "0x69f3827f",
          "transactionHash": "0x92787688bf6dc99ff5cb557d831fb7c26031a96c1c26a0828d9dd8535d34635e",
          "transactionIndex": "0xa3",
          "logIndex": "0x14a",
          "removed": false
        },
        {
          "address": "0x7bb5e307edf80630f153bd28789b4365efe4cce3",
          "topics": [
            "0x141df868a6331af528e38c83b7aa03edc19be66e37ae67f9285bf4f8e3c6a1a8",
            "0x000000000000000000000000a6b71e26c5e0845f74c812102ca7114b6a896ab2"
          ],
          "data": "0x000000000000000000000000000000000000000000000000000000000000008000000000000000000000000000000000000000000000000000000000000000010000000000000000000000002dd68b007b46fbe91b9a7c3eda5a7a1063cb5b47000000000000000000000000fd0732dc9e303f09fcef3a7388ad10a83459ec990000000000000000000000000000000000000000000000000000000000000005000000000000000000000000524075b4d1c91f91f27893f4640ca980785d1e58000000000000000000000000ac12293749b4d9e7bb4c33608d39e089135e35210000000000000000000000009f230218cf7fde6a9246e6f8cb0b888377e926390000000000000000000000004102e0743da668eb2f55e90c96ef8ef4e621879c000000000000000000000000e2679499b74ccc5dfd4aa78462fb7a1d4be386e5",
          "blockHash": "0xb14c595e9f5aa5c2965d67ae528af3a7d1948a7d170e90465f0af060b59d2b50",
          "blockNumber": "0x17d613c",
          "blockTimestamp": "0x69f3827f",
          "transactionHash": "0x92787688bf6dc99ff5cb557d831fb7c26031a96c1c26a0828d9dd8535d34635e",
          "transactionIndex": "0xa3",
          "logIndex": "0x14b",
          "removed": false
        },
        {
          "address": "0xa6b71e26c5e0845f74c812102ca7114b6a896ab2",
          "topics": [
            "0x4f51faf6c4561ff95f067657e43439f0f856d97c04d9ec9070a6199ad418e235"
          ],
          "data": "0x0000000000000000000000007bb5e307edf80630f153bd28789b4365efe4cce300000000000000000000000041675c099f32341bf84bfc5382af534df5c7461a",
          "blockHash": "0xb14c595e9f5aa5c2965d67ae528af3a7d1948a7d170e90465f0af060b59d2b50",
          "blockNumber": "0x17d613c",
          "blockTimestamp": "0x69f3827f",
          "transactionHash": "0x92787688bf6dc99ff5cb557d831fb7c26031a96c1c26a0828d9dd8535d34635e",
          "transactionIndex": "0xa3",
          "logIndex": "0x14c",
          "removed": false
        },
        {
          "address": "0xd8e63d2ca7a098e2b939bf4733e94c5768d3b966",
          "topics": [
            "0xecdf3a3effea5783a3c4c2140e677577666428d44ed9d474a0b3a4c9943f8440"
          ],
          "data": "0x0000000000000000000000007bb5e307edf80630f153bd28789b4365efe4cce3",
          "blockHash": "0xb14c595e9f5aa5c2965d67ae528af3a7d1948a7d170e90465f0af060b59d2b50",
          "blockNumber": "0x17d613c",
          "blockTimestamp": "0x69f3827f",
          "transactionHash": "0x92787688bf6dc99ff5cb557d831fb7c26031a96c1c26a0828d9dd8535d34635e",
          "transactionIndex": "0xa3",
          "logIndex": "0x14d",
          "removed": false
        },
        {
          "address": "0xd8e63d2ca7a098e2b939bf4733e94c5768d3b966",
          "topics": [
            "0x9f8368fa4ddcbd561efd7ad2a2174235bf5b840a73fb18f20db9705c11462498"
          ],
          "data": "0x0000000000000000000000007bb5e307edf80630f153bd28789b4365efe4cce3000000000000000000000000000000000000000000000000000000000000006000000000000000000000000000000000000000000000000000000000000000a000000000000000000000000000000000000000000000000000000000000000014d414e414745520000000000000000000000000000000000000000000000000000000000000000000000000000000000000000000000000000000000000000010000000000000000000000000000000000000000000000000000000000000001",
          "blockHash": "0xb14c595e9f5aa5c2965d67ae528af3a7d1948a7d170e90465f0af060b59d2b50",
          "blockNumber": "0x17d613c",
          "blockTimestamp": "0x69f3827f",
          "transactionHash": "0x92787688bf6dc99ff5cb557d831fb7c26031a96c1c26a0828d9dd8535d34635e",
          "transactionIndex": "0xa3",
          "logIndex": "0x14e",
          "removed": false
        },
        {
          "address": "0xd8e63d2ca7a098e2b939bf4733e94c5768d3b966",
          "topics": [
            "0xecdf3a3effea5783a3c4c2140e677577666428d44ed9d474a0b3a4c9943f8440"
          ],
          "data": "0x000000000000000000000000b15400bb735cf9d91e09d097f2da588ebe760d49",
          "blockHash": "0xb14c595e9f5aa5c2965d67ae528af3a7d1948a7d170e90465f0af060b59d2b50",
          "blockNumber": "0x17d613c",
          "blockTimestamp": "0x69f3827f",
          "transactionHash": "0x92787688bf6dc99ff5cb557d831fb7c26031a96c1c26a0828d9dd8535d34635e",
          "transactionIndex": "0xa3",
          "logIndex": "0x14f",
          "removed": false
        },
        {
          "address": "0xd8e63d2ca7a098e2b939bf4733e94c5768d3b966",
          "topics": [
            "0x60c85b61661a191efceebca036d48b290e04a1f08dd96472b920adbdd50c64e8"
          ],
          "data": "0x000000000000000000000000b15400bb735cf9d91e09d097f2da588ebe760d494d414e4147455200000000000000000000000000000000000000000000000000",
          "blockHash": "0xb14c595e9f5aa5c2965d67ae528af3a7d1948a7d170e90465f0af060b59d2b50",
          "blockNumber": "0x17d613c",
          "blockTimestamp": "0x69f3827f",
          "transactionHash": "0x92787688bf6dc99ff5cb557d831fb7c26031a96c1c26a0828d9dd8535d34635e",
          "transactionIndex": "0xa3",
          "logIndex": "0x150",
          "removed": false
        },
        {
          "address": "0xd8e63d2ca7a098e2b939bf4733e94c5768d3b966",
          "topics": [
            "0x9f8368fa4ddcbd561efd7ad2a2174235bf5b840a73fb18f20db9705c11462498"
          ],
          "data": "0x000000000000000000000000b15400bb735cf9d91e09d097f2da588ebe760d49000000000000000000000000000000000000000000000000000000000000006000000000000000000000000000000000000000000000000000000000000000a000000000000000000000000000000000000000000000000000000000000000014d414e414745520000000000000000000000000000000000000000000000000000000000000000000000000000000000000000000000000000000000000000010000000000000000000000000000000000000000000000000000000000000001",
          "blockHash": "0xb14c595e9f5aa5c2965d67ae528af3a7d1948a7d170e90465f0af060b59d2b50",
          "blockNumber": "0x17d613c",
          "blockTimestamp": "0x69f3827f",
          "transactionHash": "0x92787688bf6dc99ff5cb557d831fb7c26031a96c1c26a0828d9dd8535d34635e",
          "transactionIndex": "0xa3",
          "logIndex": "0x151",
          "removed": false
        },
        {
          "address": "0xd8e63d2ca7a098e2b939bf4733e94c5768d3b966",
          "topics": [
            "0x52ae88b092de36f87fb43fe794eb1381023b9c1bce563a871154022c63dce342",
            "0x0000000000000000000000000d94255fde65d302616b02a2f070cdb21190d420",
            "0x00000000000000000000000038f6a1b46144faee6a6d9f79d8de264c18e23848"
          ],
          "data": "0x",
          "blockHash": "0xb14c595e9f5aa5c2965d67ae528af3a7d1948a7d170e90465f0af060b59d2b50",
          "blockNumber": "0x17d613c",
          "blockTimestamp": "0x69f3827f",
          "transactionHash": "0x92787688bf6dc99ff5cb557d831fb7c26031a96c1c26a0828d9dd8535d34635e",
          "transactionIndex": "0xa3",
          "logIndex": "0x152",
          "removed": false
        },
        {
          "address": "0xd8e63d2ca7a098e2b939bf4733e94c5768d3b966",
          "topics": [
            "0x90cc2f570a6eb594b1580ea3e41247d2d73a55281889e86bd4ec2fc29c7e62d6",
            "0x0000000000000000000000000d94255fde65d302616b02a2f070cdb21190d420",
            "0x00000000000000000000000038f6a1b46144faee6a6d9f79d8de264c18e23848"
          ],
          "data": "0x",
          "blockHash": "0xb14c595e9f5aa5c2965d67ae528af3a7d1948a7d170e90465f0af060b59d2b50",
          "blockNumber": "0x17d613c",
          "blockTimestamp": "0x69f3827f",
          "transactionHash": "0x92787688bf6dc99ff5cb557d831fb7c26031a96c1c26a0828d9dd8535d34635e",
          "transactionIndex": "0xa3",
          "logIndex": "0x153",
          "removed": false
        },
        {
          "address": "0xd8e63d2ca7a098e2b939bf4733e94c5768d3b966",
          "topics": [
            "0x8be0079c531659141344cd1fd0a4f28419497f9722a3daafe3b4186f6b6457e0",
            "0x0000000000000000000000000d94255fde65d302616b02a2f070cdb21190d420",
            "0x0000000000000000000000009d73c053afcbf6cd5c8986c3f049fd2ce005730c"
          ],
          "data": "0x",
          "blockHash": "0xb14c595e9f5aa5c2965d67ae528af3a7d1948a7d170e90465f0af060b59d2b50",
          "blockNumber": "0x17d613c",
          "blockTimestamp": "0x69f3827f",
          "transactionHash": "0x92787688bf6dc99ff5cb557d831fb7c26031a96c1c26a0828d9dd8535d34635e",
          "transactionIndex": "0xa3",
          "logIndex": "0x154",
          "removed": false
        },
        {
          "address": "0xb15400bb735cf9d91e09d097f2da588ebe760d49",
          "topics": [
            "0x52ae88b092de36f87fb43fe794eb1381023b9c1bce563a871154022c63dce342",
            "0x0000000000000000000000000d94255fde65d302616b02a2f070cdb21190d420",
            "0x00000000000000000000000038f6a1b46144faee6a6d9f79d8de264c18e23848"
          ],
          "data": "0x",
          "blockHash": "0xb14c595e9f5aa5c2965d67ae528af3a7d1948a7d170e90465f0af060b59d2b50",
          "blockNumber": "0x17d613c",
          "blockTimestamp": "0x69f3827f",
          "transactionHash": "0x92787688bf6dc99ff5cb557d831fb7c26031a96c1c26a0828d9dd8535d34635e",
          "transactionIndex": "0xa3",
          "logIndex": "0x155",
          "removed": false
        },
        {
          "address": "0xb15400bb735cf9d91e09d097f2da588ebe760d49",
          "topics": [
            "0x90cc2f570a6eb594b1580ea3e41247d2d73a55281889e86bd4ec2fc29c7e62d6",
            "0x0000000000000000000000000d94255fde65d302616b02a2f070cdb21190d420",
            "0x000000000000000000000000d8e63d2ca7a098e2b939bf4733e94c5768d3b966"
          ],
          "data": "0x",
          "blockHash": "0xb14c595e9f5aa5c2965d67ae528af3a7d1948a7d170e90465f0af060b59d2b50",
          "blockNumber": "0x17d613c",
          "blockTimestamp": "0x69f3827f",
          "transactionHash": "0x92787688bf6dc99ff5cb557d831fb7c26031a96c1c26a0828d9dd8535d34635e",
          "transactionIndex": "0xa3",
          "logIndex": "0x156",
          "removed": false
        },
        {
          "address": "0xb15400bb735cf9d91e09d097f2da588ebe760d49",
          "topics": [
            "0x8be0079c531659141344cd1fd0a4f28419497f9722a3daafe3b4186f6b6457e0",
            "0x0000000000000000000000000d94255fde65d302616b02a2f070cdb21190d420",
            "0x0000000000000000000000007bb5e307edf80630f153bd28789b4365efe4cce3"
          ],
          "data": "0x",
          "blockHash": "0xb14c595e9f5aa5c2965d67ae528af3a7d1948a7d170e90465f0af060b59d2b50",
          "blockNumber": "0x17d613c",
          "blockTimestamp": "0x69f3827f",
          "transactionHash": "0x92787688bf6dc99ff5cb557d831fb7c26031a96c1c26a0828d9dd8535d34635e",
          "transactionIndex": "0xa3",
          "logIndex": "0x157",
          "removed": false
        },
        {
          "address": "0x988a15711ccdf16c06010bb41aaebf39e407cd7f",
          "topics": [
            "0x52ae88b092de36f87fb43fe794eb1381023b9c1bce563a871154022c63dce342",
            "0x0000000000000000000000000d94255fde65d302616b02a2f070cdb21190d420",
            "0x0000000000000000000000007bb5e307edf80630f153bd28789b4365efe4cce3"
          ],
          "data": "0x",
          "blockHash": "0xb14c595e9f5aa5c2965d67ae528af3a7d1948a7d170e90465f0af060b59d2b50",
          "blockNumber": "0x17d613c",
          "blockTimestamp": "0x69f3827f",
          "transactionHash": "0x92787688bf6dc99ff5cb557d831fb7c26031a96c1c26a0828d9dd8535d34635e",
          "transactionIndex": "0xa3",
          "logIndex": "0x158",
          "removed": false
        },
        {
          "address": "0x988a15711ccdf16c06010bb41aaebf39e407cd7f",
          "topics": [
            "0x90cc2f570a6eb594b1580ea3e41247d2d73a55281889e86bd4ec2fc29c7e62d6",
            "0x0000000000000000000000000d94255fde65d302616b02a2f070cdb21190d420",
            "0x0000000000000000000000007bb5e307edf80630f153bd28789b4365efe4cce3"
          ],
          "data": "0x",
          "blockHash": "0xb14c595e9f5aa5c2965d67ae528af3a7d1948a7d170e90465f0af060b59d2b50",
          "blockNumber": "0x17d613c",
          "blockTimestamp": "0x69f3827f",
          "transactionHash": "0x92787688bf6dc99ff5cb557d831fb7c26031a96c1c26a0828d9dd8535d34635e",
          "transactionIndex": "0xa3",
          "logIndex": "0x159",
          "removed": false
        },
        {
          "address": "0x988a15711ccdf16c06010bb41aaebf39e407cd7f",
          "topics": [
            "0x8be0079c531659141344cd1fd0a4f28419497f9722a3daafe3b4186f6b6457e0",
            "0x0000000000000000000000000d94255fde65d302616b02a2f070cdb21190d420",
            "0x0000000000000000000000007bb5e307edf80630f153bd28789b4365efe4cce3"
          ],
          "data": "0x",
          "blockHash": "0xb14c595e9f5aa5c2965d67ae528af3a7d1948a7d170e90465f0af060b59d2b50",
          "blockNumber": "0x17d613c",
          "blockTimestamp": "0x69f3827f",
          "transactionHash": "0x92787688bf6dc99ff5cb557d831fb7c26031a96c1c26a0828d9dd8535d34635e",
          "transactionIndex": "0xa3",
          "logIndex": "0x15a",
          "removed": false
        },
        {
          "address": "0x18b97206ca50982d51e9943ff53cb9d8a238e939",
          "topics": [
            "0xc7f505b2f371ae2175ee4913f4499e1f2633a7b5936321eed1cdaeb6115181d2"
          ],
          "data": "0x000000000000000000000000000000000000000000000000ffffffffffffffff",
          "blockHash": "0xb14c595e9f5aa5c2965d67ae528af3a7d1948a7d170e90465f0af060b59d2b50",
          "blockNumber": "0x17d613c",
          "blockTimestamp": "0x69f3827f",
          "transactionHash": "0x92787688bf6dc99ff5cb557d831fb7c26031a96c1c26a0828d9dd8535d34635e",
          "transactionIndex": "0xa3",
          "logIndex": "0x15b",
          "removed": false
        },
        {
          "address": "0x6d1a4c0878ad24793b1655ae1f78cfa4522ba765",
          "topics": [
            "0xbc7cd75a20ee27fd9adebab32041f755214dbc6bffa90cc0225b39da2e5c2d3b",
            "0x00000000000000000000000018b97206ca50982d51e9943ff53cb9d8a238e939"
          ],
          "data": "0x",
          "blockHash": "0xb14c595e9f5aa5c2965d67ae528af3a7d1948a7d170e90465f0af060b59d2b50",
          "blockNumber": "0x17d613c",
          "blockTimestamp": "0x69f3827f",
          "transactionHash": "0x92787688bf6dc99ff5cb557d831fb7c26031a96c1c26a0828d9dd8535d34635e",
          "transactionIndex": "0xa3",
          "logIndex": "0x15c",
          "removed": false
        },
        {
          "address": "0x6d1a4c0878ad24793b1655ae1f78cfa4522ba765",
          "topics": [
            "0x43b4d2df53b8ec4091761b182b40c973e846ef43f0966abcacd8e29a178bd7e5",
            "0x000000000000000000000000a0b86991c6218b36c1d19d4a2e9eb0ce3606eb48"
          ],
          "data": "0x",
          "blockHash": "0xb14c595e9f5aa5c2965d67ae528af3a7d1948a7d170e90465f0af060b59d2b50",
          "blockNumber": "0x17d613c",
          "blockTimestamp": "0x69f3827f",
          "transactionHash": "0x92787688bf6dc99ff5cb557d831fb7c26031a96c1c26a0828d9dd8535d34635e",
          "transactionIndex": "0xa3",
          "logIndex": "0x15d",
          "removed": false
        },
        {
          "address": "0x6d1a4c0878ad24793b1655ae1f78cfa4522ba765",
          "topics": [
            "0x1175ae2330b4ff9a4577f573159eb554909d88fa901321b37d5bd72613cc57f7",
            "0x000000000000000000000000a0b86991c6218b36c1d19d4a2e9eb0ce3606eb48"
          ],
          "data": "0x000000000000000000000000000000000000000000000000000000000000000100000000000000000000000000000000000000000000000000000000000000010000000000000000000000000000000000000000000000000000000000000001",
          "blockHash": "0xb14c595e9f5aa5c2965d67ae528af3a7d1948a7d170e90465f0af060b59d2b50",
          "blockNumber": "0x17d613c",
          "blockTimestamp": "0x69f3827f",
          "transactionHash": "0x92787688bf6dc99ff5cb557d831fb7c26031a96c1c26a0828d9dd8535d34635e",
          "transactionIndex": "0xa3",
          "logIndex": "0x15e",
          "removed": false
        },
        {
          "address": "0x6d1a4c0878ad24793b1655ae1f78cfa4522ba765",
          "topics": [
            "0xb43a54cb7c4fdffa59c4df968b7081b9032c551d37d487662a5012a147673aaa",
            "0x0000000000000000000000007bb5e307edf80630f153bd28789b4365efe4cce3"
          ],
          "data": "0x",
          "blockHash": "0xb14c595e9f5aa5c2965d67ae528af3a7d1948a7d170e90465f0af060b59d2b50",
          "blockNumber": "0x17d613c",
          "blockTimestamp": "0x69f3827f",
          "transactionHash": "0x92787688bf6dc99ff5cb557d831fb7c26031a96c1c26a0828d9dd8535d34635e",
          "transactionIndex": "0xa3",
          "logIndex": "0x15f",
          "removed": false
        },
        {
          "address": "0x6d1a4c0878ad24793b1655ae1f78cfa4522ba765",
          "topics": [
            "0xc637eeeaf41270ac15287330fb31bb21046b9c2ebe7fe6d9cfc8fc42ad265eb1"
          ],
          "data": "0x000000000000000000000000000000000000000000000000000000000000012c",
          "blockHash": "0xb14c595e9f5aa5c2965d67ae528af3a7d1948a7d170e90465f0af060b59d2b50",
          "blockNumber": "0x17d613c",
          "blockTimestamp": "0x69f3827f",
          "transactionHash": "0x92787688bf6dc99ff5cb557d831fb7c26031a96c1c26a0828d9dd8535d34635e",
          "transactionIndex": "0xa3",
          "logIndex": "0x160",
          "removed": false
        },
        {
          "address": "0x6d1a4c0878ad24793b1655ae1f78cfa4522ba765",
          "topics": [
            "0xacf03ff480419a5d7903e275441893a9ffdb5167d7c7697667ece7a0f81bf996"
          ],
          "data": "0x0000000000000000000000000000000000000000000000000000000000000096",
          "blockHash": "0xb14c595e9f5aa5c2965d67ae528af3a7d1948a7d170e90465f0af060b59d2b50",
          "blockNumber": "0x17d613c",
          "blockTimestamp": "0x69f3827f",
          "transactionHash": "0x92787688bf6dc99ff5cb557d831fb7c26031a96c1c26a0828d9dd8535d34635e",
          "transactionIndex": "0xa3",
          "logIndex": "0x161",
          "removed": false
        },
        {
          "address": "0x6d1a4c0878ad24793b1655ae1f78cfa4522ba765",
          "topics": [
            "0x38d27f1228eafcf2d29ceafa6a2303ce003cdc89335ec99d1560f2de4bb36af1"
          ],
          "data": "0x0000000000000000000000000000000000000000000000000000000000000000",
          "blockHash": "0xb14c595e9f5aa5c2965d67ae528af3a7d1948a7d170e90465f0af060b59d2b50",
          "blockNumber": "0x17d613c",
          "blockTimestamp": "0x69f3827f",
          "transactionHash": "0x92787688bf6dc99ff5cb557d831fb7c26031a96c1c26a0828d9dd8535d34635e",
          "transactionIndex": "0xa3",
          "logIndex": "0x162",
          "removed": false
        },
        {
          "address": "0x6d1a4c0878ad24793b1655ae1f78cfa4522ba765",
          "topics": [
            "0xa8789f194e5a01cf3e250cce95fee7483a613566f94d44d43c291292ddc9714e",
            "0x0000000000000000000000000000000000000000000000000000000000000000"
          ],
          "data": "0x",
          "blockHash": "0xb14c595e9f5aa5c2965d67ae528af3a7d1948a7d170e90465f0af060b59d2b50",
          "blockNumber": "0x17d613c",
          "blockTimestamp": "0x69f3827f",
          "transactionHash": "0x92787688bf6dc99ff5cb557d831fb7c26031a96c1c26a0828d9dd8535d34635e",
          "transactionIndex": "0xa3",
          "logIndex": "0x163",
          "removed": false
        },
        {
          "address": "0x6d1a4c0878ad24793b1655ae1f78cfa4522ba765",
          "topics": [
            "0x1af257f4d3b2744c9ed240551784bd42c0f43f8432a1e20cdc4830896c9866d2"
          ],
          "data": "0x000000000000000000000000000000000000000000000000000000000003f480",
          "blockHash": "0xb14c595e9f5aa5c2965d67ae528af3a7d1948a7d170e90465f0af060b59d2b50",
          "blockNumber": "0x17d613c",
          "blockTimestamp": "0x69f3827f",
          "transactionHash": "0x92787688bf6dc99ff5cb557d831fb7c26031a96c1c26a0828d9dd8535d34635e",
          "transactionIndex": "0xa3",
          "logIndex": "0x164",
          "removed": false
        },
        {
          "address": "0x6d1a4c0878ad24793b1655ae1f78cfa4522ba765",
          "topics": [
            "0x0b79c75a9eeb8bebcb13cdce5649fa45faf2418b615555c242ae7f6e50324d89"
          ],
          "data": "0x000000000000000000000000000000000000000000000000000000000003f480",
          "blockHash": "0xb14c595e9f5aa5c2965d67ae528af3a7d1948a7d170e90465f0af060b59d2b50",
          "blockNumber": "0x17d613c",
          "blockTimestamp": "0x69f3827f",
          "transactionHash": "0x92787688bf6dc99ff5cb557d831fb7c26031a96c1c26a0828d9dd8535d34635e",
          "transactionIndex": "0xa3",
          "logIndex": "0x165",
          "removed": false
        },
        {
          "address": "0x6d1a4c0878ad24793b1655ae1f78cfa4522ba765",
          "topics": [
            "0x2f8788117e7eff1d82e926ec794901d17c78024a50270940304540a733656f0d",
            "0x0000000000000000000000000000000000000000000000000000000000000000",
            "0x0000000000000000000000000d94255fde65d302616b02a2f070cdb21190d420",
            "0x0000000000000000000000000d94255fde65d302616b02a2f070cdb21190d420"
          ],
          "data": "0x",
          "blockHash": "0xb14c595e9f5aa5c2965d67ae528af3a7d1948a7d170e90465f0af060b59d2b50",
          "blockNumber": "0x17d613c",
          "blockTimestamp": "0x69f3827f",
          "transactionHash": "0x92787688bf6dc99ff5cb557d831fb7c26031a96c1c26a0828d9dd8535d34635e",
          "transactionIndex": "0xa3",
          "logIndex": "0x166",
          "removed": false
        },
        {
          "address": "0x6d1a4c0878ad24793b1655ae1f78cfa4522ba765",
          "topics": [
            "0xc7f505b2f371ae2175ee4913f4499e1f2633a7b5936321eed1cdaeb6115181d2"
          ],
          "data": "0x0000000000000000000000000000000000000000000000000000000000000001",
          "blockHash": "0xb14c595e9f5aa5c2965d67ae528af3a7d1948a7d170e90465f0af060b59d2b50",
          "blockNumber": "0x17d613c",
          "blockTimestamp": "0x69f3827f",
          "transactionHash": "0x92787688bf6dc99ff5cb557d831fb7c26031a96c1c26a0828d9dd8535d34635e",
          "transactionIndex": "0xa3",
          "logIndex": "0x167",
          "removed": false
        },
        {
          "address": "0x6d1a4c0878ad24793b1655ae1f78cfa4522ba765",
          "topics": [
            "0x2f8788117e7eff1d82e926ec794901d17c78024a50270940304540a733656f0d",
            "0x523a704056dcd17bcf83bed8b68c59416dac1119be77755efe3bde0a64e46e0c",
            "0x0000000000000000000000000d94255fde65d302616b02a2f070cdb21190d420",
            "0x0000000000000000000000000d94255fde65d302616b02a2f070cdb21190d420"
          ],
          "data": "0x",
          "blockHash": "0xb14c595e9f5aa5c2965d67ae528af3a7d1948a7d170e90465f0af060b59d2b50",
          "blockNumber": "0x17d613c",
          "blockTimestamp": "0x69f3827f",
          "transactionHash": "0x92787688bf6dc99ff5cb557d831fb7c26031a96c1c26a0828d9dd8535d34635e",
          "transactionIndex": "0xa3",
          "logIndex": "0x168",
          "removed": false
        },
        {
          "address": "0x6d1a4c0878ad24793b1655ae1f78cfa4522ba765",
          "topics": [
            "0x43b4d2df53b8ec4091761b182b40c973e846ef43f0966abcacd8e29a178bd7e5",
            "0x000000000000000000000000dac17f958d2ee523a2206206994597c13d831ec7"
          ],
          "data": "0x",
          "blockHash": "0xb14c595e9f5aa5c2965d67ae528af3a7d1948a7d170e90465f0af060b59d2b50",
          "blockNumber": "0x17d613c",
          "blockTimestamp": "0x69f3827f",
          "transactionHash": "0x92787688bf6dc99ff5cb557d831fb7c26031a96c1c26a0828d9dd8535d34635e",
          "transactionIndex": "0xa3",
          "logIndex": "0x169",
          "removed": false
        },
        {
          "address": "0x6d1a4c0878ad24793b1655ae1f78cfa4522ba765",
          "topics": [
            "0x1175ae2330b4ff9a4577f573159eb554909d88fa901321b37d5bd72613cc57f7",
            "0x000000000000000000000000dac17f958d2ee523a2206206994597c13d831ec7"
          ],
          "data": "0x000000000000000000000000000000000000000000000000000000000000000000000000000000000000000000000000000000000000000000000000000000010000000000000000000000000000000000000000000000000000000000000001",
          "blockHash": "0xb14c595e9f5aa5c2965d67ae528af3a7d1948a7d170e90465f0af060b59d2b50",
          "blockNumber": "0x17d613c",
          "blockTimestamp": "0x69f3827f",
          "transactionHash": "0x92787688bf6dc99ff5cb557d831fb7c26031a96c1c26a0828d9dd8535d34635e",
          "transactionIndex": "0xa3",
          "logIndex": "0x16a",
          "removed": false
        },
        {
          "address": "0x6d1a4c0878ad24793b1655ae1f78cfa4522ba765",
          "topics": [
            "0xf6391f5c32d9c69d2a47ea670b442974b53935d1edc7fd64eb21e047a839171b",
            "0x523a704056dcd17bcf83bed8b68c59416dac1119be77755efe3bde0a64e46e0c",
            "0x0000000000000000000000000d94255fde65d302616b02a2f070cdb21190d420",
            "0x0000000000000000000000000d94255fde65d302616b02a2f070cdb21190d420"
          ],
          "data": "0x",
          "blockHash": "0xb14c595e9f5aa5c2965d67ae528af3a7d1948a7d170e90465f0af060b59d2b50",
          "blockNumber": "0x17d613c",
          "blockTimestamp": "0x69f3827f",
          "transactionHash": "0x92787688bf6dc99ff5cb557d831fb7c26031a96c1c26a0828d9dd8535d34635e",
          "transactionIndex": "0xa3",
          "logIndex": "0x16b",
          "removed": false
        },
        {
          "address": "0x6d1a4c0878ad24793b1655ae1f78cfa4522ba765",
          "topics": [
            "0x2f8788117e7eff1d82e926ec794901d17c78024a50270940304540a733656f0d",
            "0x523a704056dcd17bcf83bed8b68c59416dac1119be77755efe3bde0a64e46e0c",
            "0x0000000000000000000000007bb5e307edf80630f153bd28789b4365efe4cce3",
            "0x0000000000000000000000000d94255fde65d302616b02a2f070cdb21190d420"
          ],
          "data": "0x",
          "blockHash": "0xb14c595e9f5aa5c2965d67ae528af3a7d1948a7d170e90465f0af060b59d2b50",
          "blockNumber": "0x17d613c",
          "blockTimestamp": "0x69f3827f",
          "transactionHash": "0x92787688bf6dc99ff5cb557d831fb7c26031a96c1c26a0828d9dd8535d34635e",
          "transactionIndex": "0xa3",
          "logIndex": "0x16c",
          "removed": false
        },
        {
          "address": "0x6d1a4c0878ad24793b1655ae1f78cfa4522ba765",
          "topics": [
            "0x2f8788117e7eff1d82e926ec794901d17c78024a50270940304540a733656f0d",
            "0x0000000000000000000000000000000000000000000000000000000000000000",
            "0x0000000000000000000000009d73c053afcbf6cd5c8986c3f049fd2ce005730c",
            "0x0000000000000000000000000d94255fde65d302616b02a2f070cdb21190d420"
          ],
          "data": "0x",
          "blockHash": "0xb14c595e9f5aa5c2965d67ae528af3a7d1948a7d170e90465f0af060b59d2b50",
          "blockNumber": "0x17d613c",
          "blockTimestamp": "0x69f3827f",
          "transactionHash": "0x92787688bf6dc99ff5cb557d831fb7c26031a96c1c26a0828d9dd8535d34635e",
          "transactionIndex": "0xa3",
          "logIndex": "0x16d",
          "removed": false
        },
        {
          "address": "0x6d1a4c0878ad24793b1655ae1f78cfa4522ba765",
          "topics": [
            "0xf6391f5c32d9c69d2a47ea670b442974b53935d1edc7fd64eb21e047a839171b",
            "0x0000000000000000000000000000000000000000000000000000000000000000",
            "0x0000000000000000000000000d94255fde65d302616b02a2f070cdb21190d420",
            "0x0000000000000000000000000d94255fde65d302616b02a2f070cdb21190d420"
          ],
          "data": "0x",
          "blockHash": "0xb14c595e9f5aa5c2965d67ae528af3a7d1948a7d170e90465f0af060b59d2b50",
          "blockNumber": "0x17d613c",
          "blockTimestamp": "0x69f3827f",
          "transactionHash": "0x92787688bf6dc99ff5cb557d831fb7c26031a96c1c26a0828d9dd8535d34635e",
          "transactionIndex": "0xa3",
          "logIndex": "0x16e",
          "removed": false
        },
        {
          "address": "0xa0b86991c6218b36c1d19d4a2e9eb0ce3606eb48",
          "topics": [
            "0x8c5be1e5ebec7d5bd14f71427d1e84f3dd0314c0f7b2291e5b200ac8c7c3b925",
            "0x00000000000000000000000038f6a1b46144faee6a6d9f79d8de264c18e23848",
            "0x0000000000000000000000006d1a4c0878ad24793b1655ae1f78cfa4522ba765"
          ],
          "data": "0xffffffffffffffffffffffffffffffffffffffffffffffffffffffffffffffff",
          "blockHash": "0xb14c595e9f5aa5c2965d67ae528af3a7d1948a7d170e90465f0af060b59d2b50",
          "blockNumber": "0x17d613c",
          "blockTimestamp": "0x69f3827f",
          "transactionHash": "0x92787688bf6dc99ff5cb557d831fb7c26031a96c1c26a0828d9dd8535d34635e",
          "transactionIndex": "0xa3",
          "logIndex": "0x16f",
          "removed": false
        },
        {
          "address": "0x38f6a1b46144faee6a6d9f79d8de264c18e23848",
          "topics": [
            "0x6895c13664aa4f67288b25d7a21d7aaa34916e355fb9b6fae0a139a9085becb8",
            "0x0000000000000000000000000d94255fde65d302616b02a2f070cdb21190d420"
          ],
          "data": "0x",
          "blockHash": "0xb14c595e9f5aa5c2965d67ae528af3a7d1948a7d170e90465f0af060b59d2b50",
          "blockNumber": "0x17d613c",
          "blockTimestamp": "0x69f3827f",
          "transactionHash": "0x92787688bf6dc99ff5cb557d831fb7c26031a96c1c26a0828d9dd8535d34635e",
          "transactionIndex": "0xa3",
          "logIndex": "0x170",
          "removed": false
        },
        {
          "address": "0xdac17f958d2ee523a2206206994597c13d831ec7",
          "topics": [
            "0x8c5be1e5ebec7d5bd14f71427d1e84f3dd0314c0f7b2291e5b200ac8c7c3b925",
            "0x00000000000000000000000038f6a1b46144faee6a6d9f79d8de264c18e23848",
            "0x0000000000000000000000006d1a4c0878ad24793b1655ae1f78cfa4522ba765"
          ],
          "data": "0xffffffffffffffffffffffffffffffffffffffffffffffffffffffffffffffff",
          "blockHash": "0xb14c595e9f5aa5c2965d67ae528af3a7d1948a7d170e90465f0af060b59d2b50",
          "blockNumber": "0x17d613c",
          "blockTimestamp": "0x69f3827f",
          "transactionHash": "0x92787688bf6dc99ff5cb557d831fb7c26031a96c1c26a0828d9dd8535d34635e",
          "transactionIndex": "0xa3",
          "logIndex": "0x171",
          "removed": false
        },
        {
          "address": "0x38f6a1b46144faee6a6d9f79d8de264c18e23848",
          "topics": [
            "0x6895c13664aa4f67288b25d7a21d7aaa34916e355fb9b6fae0a139a9085becb8",
            "0x0000000000000000000000000d94255fde65d302616b02a2f070cdb21190d420"
          ],
          "data": "0x",
          "blockHash": "0xb14c595e9f5aa5c2965d67ae528af3a7d1948a7d170e90465f0af060b59d2b50",
          "blockNumber": "0x17d613c",
          "blockTimestamp": "0x69f3827f",
          "transactionHash": "0x92787688bf6dc99ff5cb557d831fb7c26031a96c1c26a0828d9dd8535d34635e",
          "transactionIndex": "0xa3",
          "logIndex": "0x172",
          "removed": false
        },
        {
          "address": "0x38f6a1b46144faee6a6d9f79d8de264c18e23848",
          "topics": [
            "0xaab4fa2b463f581b2b32cb3b7e3b704b9ce37cc209b5fb4d77e593ace4054276",
            "0x0000000000000000000000000d94255fde65d302616b02a2f070cdb21190d420"
          ],
          "data": "0x",
          "blockHash": "0xb14c595e9f5aa5c2965d67ae528af3a7d1948a7d170e90465f0af060b59d2b50",
          "blockNumber": "0x17d613c",
          "blockTimestamp": "0x69f3827f",
          "transactionHash": "0x92787688bf6dc99ff5cb557d831fb7c26031a96c1c26a0828d9dd8535d34635e",
          "transactionIndex": "0xa3",
          "logIndex": "0x173",
          "removed": false
        },
        {
          "address": "0x38f6a1b46144faee6a6d9f79d8de264c18e23848",
          "topics": [
            "0x6895c13664aa4f67288b25d7a21d7aaa34916e355fb9b6fae0a139a9085becb8",
            "0x0000000000000000000000000d94255fde65d302616b02a2f070cdb21190d420"
          ],
          "data": "0x",
          "blockHash": "0xb14c595e9f5aa5c2965d67ae528af3a7d1948a7d170e90465f0af060b59d2b50",
          "blockNumber": "0x17d613c",
          "blockTimestamp": "0x69f3827f",
          "transactionHash": "0x92787688bf6dc99ff5cb557d831fb7c26031a96c1c26a0828d9dd8535d34635e",
          "transactionIndex": "0xa3",
          "logIndex": "0x174",
          "removed": false
        },
        {
          "address": "0x0d94255fde65d302616b02a2f070cdb21190d420",
          "topics": [
            "0x3bb1b436fb486a70c05292322a8fe4803a667c95026abcdb1477f9f609db8a26",
            "0x0000000000000000000000000000000000000000000000000000000000000000"
          ],
          "data": "0x00000000000000000000000038f6a1b46144faee6a6d9f79d8de264c18e238480000000000000000000000007bb5e307edf80630f153bd28789b4365efe4cce3000000000000000000000000d8e63d2ca7a098e2b939bf4733e94c5768d3b966000000000000000000000000b15400bb735cf9d91e09d097f2da588ebe760d49000000000000000000000000988a15711ccdf16c06010bb41aaebf39e407cd7f00000000000000000000000018b97206ca50982d51e9943ff53cb9d8a238e9390000000000000000000000006d1a4c0878ad24793b1655ae1f78cfa4522ba765",
          "blockHash": "0xb14c595e9f5aa5c2965d67ae528af3a7d1948a7d170e90465f0af060b59d2b50",
          "blockNumber": "0x17d613c",
          "blockTimestamp": "0x69f3827f",
          "transactionHash": "0x92787688bf6dc99ff5cb557d831fb7c26031a96c1c26a0828d9dd8535d34635e",
          "transactionIndex": "0xa3",
          "logIndex": "0x175",
          "removed": false
        }
      ],
      "logsBloom": "0x00002004020010002000000080800010c00040400000000109800800008020000000100040002200001003000000010400208000100000000000000008b080000000100000000000a8088012000002000201000000140008004800240880400040400004020a000005002104000008100008002000080400010040010000004100040100400000000408412000000102100004000100800800000000001000004222228004022a800000048000014000020000000000000000100020400400400100002008000088000000000000500204000002280400010000050010402000001008800020000040c0104002808002240c00040c0000300000002000000001",
      "type": "0x2",
      "transactionHash": "0x92787688bf6dc99ff5cb557d831fb7c26031a96c1c26a0828d9dd8535d34635e",
      "transactionIndex": "0xa3",
      "blockHash": "0xb14c595e9f5aa5c2965d67ae528af3a7d1948a7d170e90465f0af060b59d2b50",
      "blockNumber": "0x17d613c",
      "gasUsed": "0x68dda8",
      "effectiveGasPrice": "0x3a3229ae",
      "from": "0xaa5a7c7ea51f276301f881f9ccb501a1dfef4f72",
      "to": "0x0d94255fde65d302616b02a2f070cdb21190d420",
      "contractAddress": null
    }
  ],
  "libraries": [],
  "pending": [],
  "returns": {},
  "timestamp": 1777566338472,
  "chain": 1,
  "commit": "ceeffbe"
}