{
  "transactions": [
    {
      "hash": "0x7e604682e009f49566d846179fe566de838c53444bbb44e82750891d494970e1",
      "transactionType": "CALL",
      "contractName": "KpkOivFactory",
      "contractAddress": "0x0d94255fde65d302616b02a2f070cdb21190d420",
      "function": "deployStack(((address[],uint256),(address),(address),(address),uint256))",
      "arguments": [
        "(([0x524075B4d1C91F91F27893f4640ca980785d1e58, 0xAc12293749b4D9e7bb4c33608d39E089135E3521, 0x9F230218cf7FDe6A9246e6f8CB0b888377E92639, 0x4102E0743DA668EB2f55E90c96ef8EF4e621879c, 0xE2679499b74cCc5dfd4AA78462FB7A1D4Be386E5], 1), (0x9D73C053afcbF6CD5c8986C3f049fD2Ce005730C), (0x0000000000000000000000000000000000000000), (0x0000000000000000000000000000000000000000), 23165914840764457753120906892618625837632967432423373979624142386677618192773)"
      ],
      "transaction": {
        "from": "0xaa5a7c7ea51f276301f881f9ccb501a1dfef4f72",
        "to": "0x0d94255fde65d302616b02a2f070cdb21190d420",
        "gas": "0x213dee",
        "value": "0x0",
        "input": "0xbf5d123c000000000000000000000000000000000000000000000000000000000000002000000000000000000000000000000000000000000000000000000000000000a00000000000000000000000009d73c053afcbf6cd5c8986c3f049fd2ce005730c000000000000000000000000000000000000000000000000000000000000000000000000000000000000000000000000000000000000000000000000000000003337717222fb31d74a9cb673c541790c522ac75318b226a38c9bfa791ace3185000000000000000000000000000000000000000000000000000000000000004000000000000000000000000000000000000000000000000000000000000000010000000000000000000000000000000000000000000000000000000000000005000000000000000000000000524075b4d1c91f91f27893f4640ca980785d1e58000000000000000000000000ac12293749b4d9e7bb4c33608d39e089135e35210000000000000000000000009f230218cf7fde6a9246e6f8cb0b888377e926390000000000000000000000004102e0743da668eb2f55e90c96ef8ef4e621879c000000000000000000000000e2679499b74ccc5dfd4aa78462fb7a1d4be386e5",
        "nonce": "0x56",
        "chainId": "0xa"
      },
      "additionalContracts": [
        {
          "transactionType": "CREATE2",
          "contractName": null,
          "address": "0xd8e63d2ca7a098e2b939bf4733e94c5768d3b966",
          "initCode": "0x602d8060093d393df3363d3d373d3d3d363d739646fdad06d3e24444381f44362a3b0eb343d3375af43d82803e903d91602b57fd5bf3"
        },
        {
          "transactionType": "CREATE2",
          "contractName": null,
          "address": "0xb15400bb735cf9d91e09d097f2da588ebe760d49",
          "initCode": "0x602d8060093d393df3363d3d373d3d3d363d739646fdad06d3e24444381f44362a3b0eb343d3375af43d82803e903d91602b57fd5bf3"
        },
        {
          "transactionType": "CREATE2",
          "contractName": null,
          "address": "0x988a15711ccdf16c06010bb41aaebf39e407cd7f",
          "initCode": "0x602d8060093d393df3363d3d373d3d3d363d739646fdad06d3e24444381f44362a3b0eb343d3375af43d82803e903d91602b57fd5bf3"
        },
        {
          "transactionType": "CREATE2",
          "contractName": null,
          "address": "0x38f6a1b46144faee6a6d9f79d8de264c18e23848",
          "initCode": "0x608060405234801561001057600080fd5b506040516101e63803806101e68339818101604052602081101561003357600080fd5b8101908080519060200190929190505050600073ffffffffffffffffffffffffffffffffffffffff168173ffffffffffffffffffffffffffffffffffffffff1614156100ca576040517f08c379a00000000000000000000000000000000000000000000000000000000081526004018080602001828103825260228152602001806101c46022913960400191505060405180910390fd5b806000806101000a81548173ffffffffffffffffffffffffffffffffffffffff021916908373ffffffffffffffffffffffffffffffffffffffff1602179055505060ab806101196000396000f3fe608060405273ffffffffffffffffffffffffffffffffffffffff600054167fa619486e0000000000000000000000000000000000000000000000000000000060003514156050578060005260206000f35b3660008037600080366000845af43d6000803e60008114156070573d6000fd5b3d6000f3fea2646970667358221220d1429297349653a4918076d650332de1a1068c5f3e07c5c82360c277770b955264736f6c63430007060033496e76616c69642073696e676c65746f6e20616464726573732070726f766964656400000000000000000000000041675c099f32341bf84bfc5382af534df5c7461a"
        },
        {
          "transactionType": "CREATE2",
          "contractName": null,
          "address": "0x7bb5e307edf80630f153bd28789b4365efe4cce3",
          "initCode": "0x608060405234801561001057600080fd5b506040516101e63803806101e68339818101604052602081101561003357600080fd5b8101908080519060200190929190505050600073ffffffffffffffffffffffffffffffffffffffff168173ffffffffffffffffffffffffffffffffffffffff1614156100ca576040517f08c379a00000000000000000000000000000000000000000000000000000000081526004018080602001828103825260228152602001806101c46022913960400191505060405180910390fd5b806000806101000a81548173ffffffffffffffffffffffffffffffffffffffff021916908373ffffffffffffffffffffffffffffffffffffffff1602179055505060ab806101196000396000f3fe608060405273ffffffffffffffffffffffffffffffffffffffff600054167fa619486e0000000000000000000000000000000000000000000000000000000060003514156050578060005260206000f35b3660008037600080366000845af43d6000803e60008114156070573d6000fd5b3d6000f3fea2646970667358221220d1429297349653a4918076d650332de1a1068c5f3e07c5c82360c277770b955264736f6c63430007060033496e76616c69642073696e676c65746f6e20616464726573732070726f766964656400000000000000000000000041675c099f32341bf84bfc5382af534df5c7461a"
        }
      ],
      "isFixedGasLimit": false
    }
  ],
  "receipts": [
    {
      "status": "0x1",
      "cumulativeGasUsed": "0x3f88ba",
      "logs": [
        {
          "address": "0xd8e63d2ca7a098e2b939bf4733e94c5768d3b966",
          "topics": [
            "0x8be0079c531659141344cd1fd0a4f28419497f9722a3daafe3b4186f6b6457e0",
            "0x0000000000000000000000000000000000000000000000000000000000000000",
            "0x0000000000000000000000000d94255fde65d302616b02a2f070cdb21190d420"
          ],
          "data": "0x",
          "blockHash": "0xc8735d93d98c1931491d02b41aa67a0d41e63f5cb1ba1b60dc12b2e219fd173d",
          "blockNumber": "0x8ffd7c0",
          "blockTimestamp": "0x69f38939",
          "transactionHash": "0x7e604682e009f49566d846179fe566de838c53444bbb44e82750891d494970e1",
          "transactionIndex": "0x7",
          "logIndex": "0x58",
          "removed": false
        },
        {
          "address": "0xd8e63d2ca7a098e2b939bf4733e94c5768d3b966",
          "topics": [
            "0x34d3b96a088381c6843a1f9d94d251afa88f83cc7a0d17fc23a7057506a3fc6d",
            "0x000000000000000000000000000000000000addb49795b0f9ba5bc298cdda236",
            "0x0000000000000000000000000d94255fde65d302616b02a2f070cdb21190d420",
            "0x0000000000000000000000000d94255fde65d302616b02a2f070cdb21190d420"
          ],
          "data": "0x0000000000000000000000000d94255fde65d302616b02a2f070cdb21190d420",
          "blockHash": "0xc8735d93d98c1931491d02b41aa67a0d41e63f5cb1ba1b60dc12b2e219fd173d",
          "blockNumber": "0x8ffd7c0",
          "blockTimestamp": "0x69f38939",
          "transactionHash": "0x7e604682e009f49566d846179fe566de838c53444bbb44e82750891d494970e1",
          "transactionIndex": "0x7",
          "logIndex": "0x59",
          "removed": false
        },
        {
          "address": "0xd8e63d2ca7a098e2b939bf4733e94c5768d3b966",
          "topics": [
            "0xc7f505b2f371ae2175ee4913f4499e1f2633a7b5936321eed1cdaeb6115181d2"
          ],
          "data": "0x0000000000000000000000000000000000000000000000000000000000000001",
          "blockHash": "0xc8735d93d98c1931491d02b41aa67a0d41e63f5cb1ba1b60dc12b2e219fd173d",
          "blockNumber": "0x8ffd7c0",
          "blockTimestamp": "0x69f38939",
          "transactionHash": "0x7e604682e009f49566d846179fe566de838c53444bbb44e82750891d494970e1",
          "transactionIndex": "0x7",
          "logIndex": "0x5a",
          "removed": false
        },
        {
          "address": "0x000000000000addb49795b0f9ba5bc298cdda236",
          "topics": [
            "0x2150ada912bf189ed721c44211199e270903fc88008c2a1e1e889ef30fe67c5f",
            "0x000000000000000000000000d8e63d2ca7a098e2b939bf4733e94c5768d3b966",
            "0x0000000000000000000000009646fdad06d3e24444381f44362a3b0eb343d337"
          ],
          "data": "0x",
          "blockHash": "0xc8735d93d98c1931491d02b41aa67a0d41e63f5cb1ba1b60dc12b2e219fd173d",
          "blockNumber": "0x8ffd7c0",
          "blockTimestamp": "0x69f38939",
          "transactionHash": "0x7e604682e009f49566d846179fe566de838c53444bbb44e82750891d494970e1",
          "transactionIndex": "0x7",
          "logIndex": "0x5b",
          "removed": false
        },
        {
          "address": "0xb15400bb735cf9d91e09d097f2da588ebe760d49",
          "topics": [
            "0x8be0079c531659141344cd1fd0a4f28419497f9722a3daafe3b4186f6b6457e0",
            "0x0000000000000000000000000000000000000000000000000000000000000000",
            "0x0000000000000000000000000d94255fde65d302616b02a2f070cdb21190d420"
          ],
          "data": "0x",
          "blockHash": "0xc8735d93d98c1931491d02b41aa67a0d41e63f5cb1ba1b60dc12b2e219fd173d",
          "blockNumber": "0x8ffd7c0",
          "blockTimestamp": "0x69f38939",
          "transactionHash": "0x7e604682e009f49566d846179fe566de838c53444bbb44e82750891d494970e1",
          "transactionIndex": "0x7",
          "logIndex": "0x5c",
          "removed": false
        },
        {
          "address": "0xb15400bb735cf9d91e09d097f2da588ebe760d49",
          "topics": [
            "0x34d3b96a088381c6843a1f9d94d251afa88f83cc7a0d17fc23a7057506a3fc6d",
            "0x000000000000000000000000000000000000addb49795b0f9ba5bc298cdda236",
            "0x0000000000000000000000000d94255fde65d302616b02a2f070cdb21190d420",
            "0x0000000000000000000000000d94255fde65d302616b02a2f070cdb21190d420"
          ],
          "data": "0x0000000000000000000000000d94255fde65d302616b02a2f070cdb21190d420",
          "blockHash": "0xc8735d93d98c1931491d02b41aa67a0d41e63f5cb1ba1b60dc12b2e219fd173d",
          "blockNumber": "0x8ffd7c0",
          "blockTimestamp": "0x69f38939",
          "transactionHash": "0x7e604682e009f49566d846179fe566de838c53444bbb44e82750891d494970e1",
          "transactionIndex": "0x7",
          "logIndex": "0x5d",
          "removed": false
        },
        {
          "address": "0xb15400bb735cf9d91e09d097f2da588ebe760d49",
          "topics": [
            "0xc7f505b2f371ae2175ee4913f4499e1f2633a7b5936321eed1cdaeb6115181d2"
          ],
          "data": "0x0000000000000000000000000000000000000000000000000000000000000001",
          "blockHash": "0xc8735d93d98c1931491d02b41aa67a0d41e63f5cb1ba1b60dc12b2e219fd173d",
          "blockNumber": "0x8ffd7c0",
          "blockTimestamp": "0x69f38939",
          "transactionHash": "0x7e604682e009f49566d846179fe566de838c53444bbb44e82750891d494970e1",
          "transactionIndex": "0x7",
          "logIndex": "0x5e",
          "removed": false
        },
        {
          "address": "0x000000000000addb49795b0f9ba5bc298cdda236",
          "topics": [
            "0x2150ada912bf189ed721c44211199e270903fc88008c2a1e1e889ef30fe67c5f",
            "0x000000000000000000000000b15400bb735cf9d91e09d097f2da588ebe760d49",
            "0x0000000000000000000000009646fdad06d3e24444381f44362a3b0eb343d337"
          ],
          "data": "0x",
          "blockHash": "0xc8735d93d98c1931491d02b41aa67a0d41e63f5cb1ba1b60dc12b2e219fd173d",
          "blockNumber": "0x8ffd7c0",
          "blockTimestamp": "0x69f38939",
          "transactionHash": "0x7e604682e009f49566d846179fe566de838c53444bbb44e82750891d494970e1",
          "transactionIndex": "0x7",
          "logIndex": "0x5f",
          "removed": false
        },
        {
          "address": "0x988a15711ccdf16c06010bb41aaebf39e407cd7f",
          "topics": [
            "0x8be0079c531659141344cd1fd0a4f28419497f9722a3daafe3b4186f6b6457e0",
            "0x0000000000000000000000000000000000000000000000000000000000000000",
            "0x0000000000000000000000000d94255fde65d302616b02a2f070cdb21190d420"
          ],
          "data": "0x",
          "blockHash": "0xc8735d93d98c1931491d02b41aa67a0d41e63f5cb1ba1b60dc12b2e219fd173d",
          "blockNumber": "0x8ffd7c0",
          "blockTimestamp": "0x69f38939",
          "transactionHash": "0x7e604682e009f49566d846179fe566de838c53444bbb44e82750891d494970e1",
          "transactionIndex": "0x7",
          "logIndex": "0x60",
          "removed": false
        },
        {
          "address": "0x988a15711ccdf16c06010bb41aaebf39e407cd7f",
          "topics": [
            "0x34d3b96a088381c6843a1f9d94d251afa88f83cc7a0d17fc23a7057506a3fc6d",
            "0x000000000000000000000000000000000000addb49795b0f9ba5bc298cdda236",
            "0x0000000000000000000000000d94255fde65d302616b02a2f070cdb21190d420",
            "0x0000000000000000000000000d94255fde65d302616b02a2f070cdb21190d420"
          ],
          "data": "0x0000000000000000000000000d94255fde65d302616b02a2f070cdb21190d420",
          "blockHash": "0xc8735d93d98c1931491d02b41aa67a0d41e63f5cb1ba1b60dc12b2e219fd173d",
          "blockNumber": "0x8ffd7c0",
          "blockTimestamp": "0x69f38939",
          "transactionHash": "0x7e604682e009f49566d846179fe566de838c53444bbb44e82750891d494970e1",
          "transactionIndex": "0x7",
          "logIndex": "0x61",
          "removed": false
        },
        {
          "address": "0x988a15711ccdf16c06010bb41aaebf39e407cd7f",
          "topics": [
            "0xc7f505b2f371ae2175ee4913f4499e1f2633a7b5936321eed1cdaeb6115181d2"
          ],
          "data": "0x0000000000000000000000000000000000000000000000000000000000000001",
          "blockHash": "0xc8735d93d98c1931491d02b41aa67a0d41e63f5cb1ba1b60dc12b2e219fd173d",
          "blockNumber": "0x8ffd7c0",
          "blockTimestamp": "0x69f38939",
          "transactionHash": "0x7e604682e009f49566d846179fe566de838c53444bbb44e82750891d494970e1",
          "transactionIndex": "0x7",
          "logIndex": "0x62",
          "removed": false
        },
        {
          "address": "0x000000000000addb49795b0f9ba5bc298cdda236",
          "topics": [
            "0x2150ada912bf189ed721c44211199e270903fc88008c2a1e1e889ef30fe67c5f",
            "0x000000000000000000000000988a15711ccdf16c06010bb41aaebf39e407cd7f",
            "0x0000000000000000000000009646fdad06d3e24444381f44362a3b0eb343d337"
          ],
          "data": "0x",
          "blockHash": "0xc8735d93d98c1931491d02b41aa67a0d41e63f5cb1ba1b60dc12b2e219fd173d",
          "blockNumber": "0x8ffd7c0",
          "blockTimestamp": "0x69f38939",
          "transactionHash": "0x7e604682e009f49566d846179fe566de838c53444bbb44e82750891d494970e1",
          "transactionIndex": "0x7",
          "logIndex": "0x63",
          "removed": false
        },
        {
          "address": "0x38f6a1b46144faee6a6d9f79d8de264c18e23848",
          "topics": [
            "0xecdf3a3effea5783a3c4c2140e677577666428d44ed9d474a0b3a4c9943f8440",
            "0x000000000000000000000000d8e63d2ca7a098e2b939bf4733e94c5768d3b966"
          ],
          "data": "0x",
          "blockHash": "0xc8735d93d98c1931491d02b41aa67a0d41e63f5cb1ba1b60dc12b2e219fd173d",
          "blockNumber": "0x8ffd7c0",
          "blockTimestamp": "0x69f38939",
          "transactionHash": "0x7e604682e009f49566d846179fe566de838c53444bbb44e82750891d494970e1",
          "transactionIndex": "0x7",
          "logIndex": "0x64",
          "removed": false
        },
        {
          "address": "0x38f6a1b46144faee6a6d9f79d8de264c18e23848",
          "topics": [
            "0xecdf3a3effea5783a3c4c2140e677577666428d44ed9d474a0b3a4c9943f8440",
            "0x0000000000000000000000000d94255fde65d302616b02a2f070cdb21190d420"
          ],
          "data": "0x",
          "blockHash": "0xc8735d93d98c1931491d02b41aa67a0d41e63f5cb1ba1b60dc12b2e219fd173d",
          "blockNumber": "0x8ffd7c0",
          "blockTimestamp": "0x69f38939",
          "transactionHash": "0x7e604682e009f49566d846179fe566de838c53444bbb44e82750891d494970e1",
          "transactionIndex": "0x7",
          "logIndex": "0x65",
          "removed": false
        },
        {
          "address": "0x38f6a1b46144faee6a6d9f79d8de264c18e23848",
          "topics": [
            "0x141df868a6331af528e38c83b7aa03edc19be66e37ae67f9285bf4f8e3c6a1a8",
            "0x000000000000000000000000a6b71e26c5e0845f74c812102ca7114b6a896ab2"
          ],
          "data": "0x000000000000000000000000000000000000000000000000000000000000008000000000000000000000000000000000000000000000000000000000000000010000000000000000000000002dd68b007b46fbe91b9a7c3eda5a7a1063cb5b47000000000000000000000000fd0732dc9e303f09fcef3a7388ad10a83459ec990000000000000000000000000000000000000000000000000000000000000001000000000000000000000000a4703438f8cc4fc2c2503a7e43935da16ba74652",
          "blockHash": "0xc8735d93d98c1931491d02b41aa67a0d41e63f5cb1ba1b60dc12b2e219fd173d",
          "blockNumber": "0x8ffd7c0",
          "blockTimestamp": "0x69f38939",
          "transactionHash": "0x7e604682e009f49566d846179fe566de838c53444bbb44e82750891d494970e1",
          "transactionIndex": "0x7",
          "logIndex": "0x66",
          "removed": false
        },
        {
          "address": "0xa6b71e26c5e0845f74c812102ca7114b6a896ab2",
          "topics": [
            "0x4f51faf6c4561ff95f067657e43439f0f856d97c04d9ec9070a6199ad418e235"
          ],
          "data": "0x00000000000000000000000038f6a1b46144faee6a6d9f79d8de264c18e2384800000000000000000000000041675c099f32341bf84bfc5382af534df5c7461a",
          "blockHash": "0xc8735d93d98c1931491d02b41aa67a0d41e63f5cb1ba1b60dc12b2e219fd173d",
          "blockNumber": "0x8ffd7c0",
          "blockTimestamp": "0x69f38939",
          "transactionHash": "0x7e604682e009f49566d846179fe566de838c53444bbb44e82750891d494970e1",
          "transactionIndex": "0x7",
          "logIndex": "0x67",
          "removed": false
        },
        {
          "address": "0x7bb5e307edf80630f153bd28789b4365efe4cce3",
          "topics": [
            "0xecdf3a3effea5783a3c4c2140e677577666428d44ed9d474a0b3a4c9943f8440",
            "0x000000000000000000000000988a15711ccdf16c06010bb41aaebf39e407cd7f"
          ],
          "data": "0x",
          "blockHash": "0xc8735d93d98c1931491d02b41aa67a0d41e63f5cb1ba1b60dc12b2e219fd173d",
          "blockNumber": "0x8ffd7c0",
          "blockTimestamp": "0x69f38939",
          "transactionHash": "0x7e604682e009f49566d846179fe566de838c53444bbb44e82750891d494970e1",
          "transactionIndex": "0x7",
          "logIndex": "0x68",
          "removed": false
        },
        {
          "address": "0x7bb5e307edf80630f153bd28789b4365efe4cce3",
          "topics": [
            "0x141df868a6331af528e38c83b7aa03edc19be66e37ae67f9285bf4f8e3c6a1a8",
            "0x000000000000000000000000a6b71e26c5e0845f74c812102ca7114b6a896ab2"
          ],
          "data": "0x000000000000000000000000000000000000000000000000000000000000008000000000000000000000000000000000000000000000000000000000000000010000000000000000000000002dd68b007b46fbe91b9a7c3eda5a7a1063cb5b47000000000000000000000000fd0732dc9e303f09fcef3a7388ad10a83459ec990000000000000000000000000000000000000000000000000000000000000005000000000000000000000000524075b4d1c91f91f27893f4640ca980785d1e58000000000000000000000000ac12293749b4d9e7bb4c33608d39e089135e35210000000000000000000000009f230218cf7fde6a9246e6f8cb0b888377e926390000000000000000000000004102e0743da668eb2f55e90c96ef8ef4e621879c000000000000000000000000e2679499b74ccc5dfd4aa78462fb7a1d4be386e5",
          "blockHash": "0xc8735d93d98c1931491d02b41aa67a0d41e63f5cb1ba1b60dc12b2e219fd173d",
          "blockNumber": "0x8ffd7c0",
          "blockTimestamp": "0x69f38939",
          "transactionHash": "0x7e604682e009f49566d846179fe566de838c53444bbb44e82750891d494970e1",
          "transactionIndex": "0x7",
          "logIndex": "0x69",
          "removed": false
        },
        {
          "address": "0xa6b71e26c5e0845f74c812102ca7114b6a896ab2",
          "topics": [
            "0x4f51faf6c4561ff95f067657e43439f0f856d97c04d9ec9070a6199ad418e235"
          ],
          "data": "0x0000000000000000000000007bb5e307edf80630f153bd28789b4365efe4cce300000000000000000000000041675c099f32341bf84bfc5382af534df5c7461a",
          "blockHash": "0xc8735d93d98c1931491d02b41aa67a0d41e63f5cb1ba1b60dc12b2e219fd173d",
          "blockNumber": "0x8ffd7c0",
          "blockTimestamp": "0x69f38939",
          "transactionHash": "0x7e604682e009f49566d846179fe566de838c53444bbb44e82750891d494970e1",
          "transactionIndex": "0x7",
          "logIndex": "0x6a",
          "removed": false
        },
        {
          "address": "0xd8e63d2ca7a098e2b939bf4733e94c5768d3b966",
          "topics": [
            "0xecdf3a3effea5783a3c4c2140e677577666428d44ed9d474a0b3a4c9943f8440"
          ],
          "data": "0x0000000000000000000000007bb5e307edf80630f153bd28789b4365efe4cce3",
          "blockHash": "0xc8735d93d98c1931491d02b41aa67a0d41e63f5cb1ba1b60dc12b2e219fd173d",
          "blockNumber": "0x8ffd7c0",
          "blockTimestamp": "0x69f38939",
          "transactionHash": "0x7e604682e009f49566d846179fe566de838c53444bbb44e82750891d494970e1",
          "transactionIndex": "0x7",
          "logIndex": "0x6b",
          "removed": false
        },
        {
          "address": "0xd8e63d2ca7a098e2b939bf4733e94c5768d3b966",
          "topics": [
            "0x9f8368fa4ddcbd561efd7ad2a2174235bf5b840a73fb18f20db9705c11462498"
          ],
          "data": "0x0000000000000000000000007bb5e307edf80630f153bd28789b4365efe4cce3000000000000000000000000000000000000000000000000000000000000006000000000000000000000000000000000000000000000000000000000000000a000000000000000000000000000000000000000000000000000000000000000014d414e414745520000000000000000000000000000000000000000000000000000000000000000000000000000000000000000000000000000000000000000010000000000000000000000000000000000000000000000000000000000000001",
          "blockHash": "0xc8735d93d98c1931491d02b41aa67a0d41e63f5cb1ba1b60dc12b2e219fd173d",
          "blockNumber": "0x8ffd7c0",
          "blockTimestamp": "0x69f38939",
          "transactionHash": "0x7e604682e009f49566d846179fe566de838c53444bbb44e82750891d494970e1",
          "transactionIndex": "0x7",
          "logIndex": "0x6c",
          "removed": false
        },
        {
          "address": "0xd8e63d2ca7a098e2b939bf4733e94c5768d3b966",
          "topics": [
            "0xecdf3a3effea5783a3c4c2140e677577666428d44ed9d474a0b3a4c9943f8440"
          ],
          "data": "0x000000000000000000000000b15400bb735cf9d91e09d097f2da588ebe760d49",
          "blockHash": "0xc8735d93d98c1931491d02b41aa67a0d41e63f5cb1ba1b60dc12b2e219fd173d",
          "blockNumber": "0x8ffd7c0",
          "blockTimestamp": "0x69f38939",
          "transactionHash": "0x7e604682e009f49566d846179fe566de838c53444bbb44e82750891d494970e1",
          "transactionIndex": "0x7",
          "logIndex": "0x6d",
          "removed": false
        },
        {
          "address": "0xd8e63d2ca7a098e2b939bf4733e94c5768d3b966",
          "topics": [
            "0x60c85b61661a191efceebca036d48b290e04a1f08dd96472b920adbdd50c64e8"
          ],
          "data": "0x000000000000000000000000b15400bb735cf9d91e09d097f2da588ebe760d494d414e4147455200000000000000000000000000000000000000000000000000",
          "blockHash": "0xc8735d93d98c1931491d02b41aa67a0d41e63f5cb1ba1b60dc12b2e219fd173d",
          "blockNumber": "0x8ffd7c0",
          "blockTimestamp": "0x69f38939",
          "transactionHash": "0x7e604682e009f49566d846179fe566de838c53444bbb44e82750891d494970e1",
          "transactionIndex": "0x7",
          "logIndex": "0x6e",
          "removed": false
        },
        {
          "address": "0xd8e63d2ca7a098e2b939bf4733e94c5768d3b966",
          "topics": [
            "0x9f8368fa4ddcbd561efd7ad2a2174235bf5b840a73fb18f20db9705c11462498"
          ],
          "data": "0x000000000000000000000000b15400bb735cf9d91e09d097f2da588ebe760d49000000000000000000000000000000000000000000000000000000000000006000000000000000000000000000000000000000000000000000000000000000a000000000000000000000000000000000000000000000000000000000000000014d414e414745520000000000000000000000000000000000000000000000000000000000000000000000000000000000000000000000000000000000000000010000000000000000000000000000000000000000000000000000000000000001",
          "blockHash": "0xc8735d93d98c1931491d02b41aa67a0d41e63f5cb1ba1b60dc12b2e219fd173d",
          "blockNumber": "0x8ffd7c0",
          "blockTimestamp": "0x69f38939",
          "transactionHash": "0x7e604682e009f49566d846179fe566de838c53444bbb44e82750891d494970e1",
          "transactionIndex": "0x7",
          "logIndex": "0x6f",
          "removed": false
        },
        {
          "address": "0xd8e63d2ca7a098e2b939bf4733e94c5768d3b966",
          "topics": [
            "0x52ae88b092de36f87fb43fe794eb1381023b9c1bce563a871154022c63dce342",
            "0x0000000000000000000000000d94255fde65d302616b02a2f070cdb21190d420",
            "0x00000000000000000000000038f6a1b46144faee6a6d9f79d8de264c18e23848"
          ],
          "data": "0x",
          "blockHash": "0xc8735d93d98c1931491d02b41aa67a0d41e63f5cb1ba1b60dc12b2e219fd173d",
          "blockNumber": "0x8ffd7c0",
          "blockTimestamp": "0x69f38939",
          "transactionHash": "0x7e604682e009f49566d846179fe566de838c53444bbb44e82750891d494970e1",
          "transactionIndex": "0x7",
          "logIndex": "0x70",
          "removed": false
        },
        {
          "address": "0xd8e63d2ca7a098e2b939bf4733e94c5768d3b966",
          "topics": [
            "0x90cc2f570a6eb594b1580ea3e41247d2d73a55281889e86bd4ec2fc29c7e62d6",
            "0x0000000000000000000000000d94255fde65d302616b02a2f070cdb21190d420",
            "0x00000000000000000000000038f6a1b46144faee6a6d9f79d8de264c18e23848"
          ],
          "data": "0x",
          "blockHash": "0xc8735d93d98c1931491d02b41aa67a0d41e63f5cb1ba1b60dc12b2e219fd173d",
          "blockNumber": "0x8ffd7c0",
          "blockTimestamp": "0x69f38939",
          "transactionHash": "0x7e604682e009f49566d846179fe566de838c53444bbb44e82750891d494970e1",
          "transactionIndex": "0x7",
          "logIndex": "0x71",
          "removed": false
        },
        {
          "address": "0xd8e63d2ca7a098e2b939bf4733e94c5768d3b966",
          "topics": [
            "0x8be0079c531659141344cd1fd0a4f28419497f9722a3daafe3b4186f6b6457e0",
            "0x0000000000000000000000000d94255fde65d302616b02a2f070cdb21190d420",
            "0x0000000000000000000000009d73c053afcbf6cd5c8986c3f049fd2ce005730c"
          ],
          "data": "0x",
          "blockHash": "0xc8735d93d98c1931491d02b41aa67a0d41e63f5cb1ba1b60dc12b2e219fd173d",
          "blockNumber": "0x8ffd7c0",
          "blockTimestamp": "0x69f38939",
          "transactionHash": "0x7e604682e009f49566d846179fe566de838c53444bbb44e82750891d494970e1",
          "transactionIndex": "0x7",
          "logIndex": "0x72",
          "removed": false
        },
        {
          "address": "0xb15400bb735cf9d91e09d097f2da588ebe760d49",
          "topics": [
            "0x52ae88b092de36f87fb43fe794eb1381023b9c1bce563a871154022c63dce342",
            "0x0000000000000000000000000d94255fde65d302616b02a2f070cdb21190d420",
            "0x00000000000000000000000038f6a1b46144faee6a6d9f79d8de264c18e23848"
          ],
          "data": "0x",
          "blockHash": "0xc8735d93d98c1931491d02b41aa67a0d41e63f5cb1ba1b60dc12b2e219fd173d",
          "blockNumber": "0x8ffd7c0",
          "blockTimestamp": "0x69f38939",
          "transactionHash": "0x7e604682e009f49566d846179fe566de838c53444bbb44e82750891d494970e1",
          "transactionIndex": "0x7",
          "logIndex": "0x73",
          "removed": false
        },
        {
          "address": "0xb15400bb735cf9d91e09d097f2da588ebe760d49",
          "topics": [
            "0x90cc2f570a6eb594b1580ea3e41247d2d73a55281889e86bd4ec2fc29c7e62d6",
            "0x0000000000000000000000000d94255fde65d302616b02a2f070cdb21190d420",
            "0x000000000000000000000000d8e63d2ca7a098e2b939bf4733e94c5768d3b966"
          ],
          "data": "0x",
          "blockHash": "0xc8735d93d98c1931491d02b41aa67a0d41e63f5cb1ba1b60dc12b2e219fd173d",
          "blockNumber": "0x8ffd7c0",
          "blockTimestamp": "0x69f38939",
          "transactionHash": "0x7e604682e009f49566d846179fe566de838c53444bbb44e82750891d494970e1",
          "transactionIndex": "0x7",
          "logIndex": "0x74",
          "removed": false
        },
        {
          "address": "0xb15400bb735cf9d91e09d097f2da588ebe760d49",
          "topics": [
            "0x8be0079c531659141344cd1fd0a4f28419497f9722a3daafe3b4186f6b6457e0",
            "0x0000000000000000000000000d94255fde65d302616b02a2f070cdb21190d420",
            "0x0000000000000000000000007bb5e307edf80630f153bd28789b4365efe4cce3"
          ],
          "data": "0x",
          "blockHash": "0xc8735d93d98c1931491d02b41aa67a0d41e63f5cb1ba1b60dc12b2e219fd173d",
          "blockNumber": "0x8ffd7c0",
          "blockTimestamp": "0x69f38939",
          "transactionHash": "0x7e604682e009f49566d846179fe566de838c53444bbb44e82750891d494970e1",
          "transactionIndex": "0x7",
          "logIndex": "0x75",
          "removed": false
        },
        {
          "address": "0x988a15711ccdf16c06010bb41aaebf39e407cd7f",
          "topics": [
            "0x52ae88b092de36f87fb43fe794eb1381023b9c1bce563a871154022c63dce342",
            "0x0000000000000000000000000d94255fde65d302616b02a2f070cdb21190d420",
            "0x0000000000000000000000007bb5e307edf80630f153bd28789b4365efe4cce3"
          ],
          "data": "0x",
          "blockHash": "0xc8735d93d98c1931491d02b41aa67a0d41e63f5cb1ba1b60dc12b2e219fd173d",
          "blockNumber": "0x8ffd7c0",
          "blockTimestamp": "0x69f38939",
          "transactionHash": "0x7e604682e009f49566d846179fe566de838c53444bbb44e82750891d494970e1",
          "transactionIndex": "0x7",
          "logIndex": "0x76",
          "removed": false
        },
        {
          "address": "0x988a15711ccdf16c06010bb41aaebf39e407cd7f",
          "topics": [
            "0x90cc2f570a6eb594b1580ea3e41247d2d73a55281889e86bd4ec2fc29c7e62d6",
            "0x0000000000000000000000000d94255fde65d302616b02a2f070cdb21190d420",
            "0x0000000000000000000000007bb5e307edf80630f153bd28789b4365efe4cce3"
          ],
          "data": "0x",
          "blockHash": "0xc8735d93d98c1931491d02b41aa67a0d41e63f5cb1ba1b60dc12b2e219fd173d",
          "blockNumber": "0x8ffd7c0",
          "blockTimestamp": "0x69f38939",
          "transactionHash": "0x7e604682e009f49566d846179fe566de838c53444bbb44e82750891d494970e1",
          "transactionIndex": "0x7",
          "logIndex": "0x77",
          "removed": false
        },
        {
          "address": "0x988a15711ccdf16c06010bb41aaebf39e407cd7f",
          "topics": [
            "0x8be0079c531659141344cd1fd0a4f28419497f9722a3daafe3b4186f6b6457e0",
            "0x0000000000000000000000000d94255fde65d302616b02a2f070cdb21190d420",
            "0x0000000000000000000000007bb5e307edf80630f153bd28789b4365efe4cce3"
          ],
          "data": "0x",
          "blockHash": "0xc8735d93d98c1931491d02b41aa67a0d41e63f5cb1ba1b60dc12b2e219fd173d",
          "blockNumber": "0x8ffd7c0",
          "blockTimestamp": "0x69f38939",
          "transactionHash": "0x7e604682e009f49566d846179fe566de838c53444bbb44e82750891d494970e1",
          "transactionIndex": "0x7",
          "logIndex": "0x78",
          "removed": false
        },
        {
          "address": "0x38f6a1b46144faee6a6d9f79d8de264c18e23848",
          "topics": [
            "0xaab4fa2b463f581b2b32cb3b7e3b704b9ce37cc209b5fb4d77e593ace4054276",
            "0x0000000000000000000000000d94255fde65d302616b02a2f070cdb21190d420"
          ],
          "data": "0x",
          "blockHash": "0xc8735d93d98c1931491d02b41aa67a0d41e63f5cb1ba1b60dc12b2e219fd173d",
          "blockNumber": "0x8ffd7c0",
          "blockTimestamp": "0x69f38939",
          "transactionHash": "0x7e604682e009f49566d846179fe566de838c53444bbb44e82750891d494970e1",
          "transactionIndex": "0x7",
          "logIndex": "0x79",
          "removed": false
        },
        {
          "address": "0x38f6a1b46144faee6a6d9f79d8de264c18e23848",
          "topics": [
            "0x6895c13664aa4f67288b25d7a21d7aaa34916e355fb9b6fae0a139a9085becb8",
            "0x0000000000000000000000000d94255fde65d302616b02a2f070cdb21190d420"
          ],
          "data": "0x",
          "blockHash": "0xc8735d93d98c1931491d02b41aa67a0d41e63f5cb1ba1b60dc12b2e219fd173d",
          "blockNumber": "0x8ffd7c0",
          "blockTimestamp": "0x69f38939",
          "transactionHash": "0x7e604682e009f49566d846179fe566de838c53444bbb44e82750891d494970e1",
          "transactionIndex": "0x7",
          "logIndex": "0x7a",
          "removed": false
        },
        {
          "address": "0x0d94255fde65d302616b02a2f070cdb21190d420",
          "topics": [
            "0x0863f09e00fd25087f203a280953609d7e0bafdb32bbf0d2cbc56a178ef8906f",
            "0x0000000000000000000000000000000000000000000000000000000000000000"
          ],
          "data": "0x00000000000000000000000038f6a1b46144faee6a6d9f79d8de264c18e238480000000000000000000000007bb5e307edf80630f153bd28789b4365efe4cce3000000000000000000000000d8e63d2ca7a098e2b939bf4733e94c5768d3b966000000000000000000000000b15400bb735cf9d91e09d097f2da588ebe760d49000000000000000000000000988a15711ccdf16c06010bb41aaebf39e407cd7f",
          "blockHash": "0xc8735d93d98c1931491d02b41aa67a0d41e63f5cb1ba1b60dc12b2e219fd173d",
          "blockNumber": "0x8ffd7c0",
          "blockTimestamp": "0x69f38939",
          "transactionHash": "0x7e604682e009f49566d846179fe566de838c53444bbb44e82750891d494970e1",
          "transactionIndex": "0x7",
          "logIndex": "0x7b",
          "removed": false
        }
      ],
      "logsBloom": "0x000020000200100020000000008000108000404000000001098000000080000000000004000020000000000000000020002000001000000000000000089080000000100000000000800880100000000002010000000400080048002008004000000000000202000005002100000008100000000000000000000040010000004000040100400000000408010000000100100004000000800800000000000000004002008000000880000004000001400002000000000000000000002040040000000000200800000000000000000010020400000008040000000005021040200000000880000000000040104000808002200c0004000000300000002000000000",
      "type": "0x2",
      "transactionHash": "0x7e604682e009f49566d846179fe566de838c53444bbb44e82750891d494970e1",
      "transactionIndex": "0x7",
      "blockHash": "0xc8735d93d98c1931491d02b41aa67a0d41e63f5cb1ba1b60dc12b2e219fd173d",
      "blockNumber": "0x8ffd7c0",
      "gasUsed": "0x16bac2",
      "effectiveGasPrice": "0x168",
      "blobGasUsed": "0x16760",
      "from": "0xaa5a7c7ea51f276301f881f9ccb501a1dfef4f72",
      "to": "0x0d94255fde65d302616b02a2f070cdb21190d420",
      "contractAddress": null,
      "daFootprintGasScalar": "0x190",
      "l1BaseFeeScalar": "0x146b",
      "l1BlobBaseFee": "0x1e11b48",
      "l1BlobBaseFeeScalar": "0xf79c5",
      "l1Fee": "0x44123ddcb",
      "l1GasPrice": "0x2199214d",
      "l1GasUsed": "0xe6f"
    }
  ],
  "libraries": [],
  "pending": [],
  "returns": {},
  "timestamp": 1777568058225,
  "chain": 10,
  "commit": "ceeffbe"
}